:020000040800F2
:10000000086600206502000895200008371D0008DA
:100010009D1F00081D050008352A0008000000008B
:10002000000000000000000000000000CD010008FA
:10003000470700080000000011020008A92300087B
:100040007F0200087F0200087F0200087F0200088C
:100050007F0200087F0200087F0200087F0200087C
:100060007F0200087F0200087F0200087F0200086C
:100070007F0200087F0200087F0200087F0200085C
:10008000110700087F0200087F0200087F020008B5
:100090007F0200087F0200087F0200087F0200083C
:1000A0007F0200087F0200087F0200087F0200082C
:1000B0007F0200087F0200087F0200087F0200081C
:1000C0007F0200087F0200087F0200087F0200080C
:1000D0007F020008112A00081D2A0008292A0008AA
:1000E0007F0200087F0200087F0200087F020008EC
:1000F0007F0200087F0200087F0200087F020008DC
:100100007F0200087F0200087F0200087F020008CB
:10011000DD250008E92500087F0200087F020008AD
:100120007F0200087F0200087F0200087F020008AB
:1001300000F002F800F03AF80AA090E8000C8244BF
:100140008344AAF10107DA4501D100F02FF8AFF29C
:10015000090EBAE80F0013F0010F18BFFB1A43F0A5
:10016000010318474C6600006C660000103A24BF7B
:1001700078C878C1FAD8520724BF30C830C144BF0C
:1001800004680C607047000000230024002500264E
:10019000103A28BF78C1FBD8520728BF30C148BFEA
:1001A0000B6070471FB51FBD10B510BD00F050F9B2
:1001B0001146FFF7F7FF03F048FA00F06EF903B4B9
:1001C000FFF7F2FF03BC00F071F90000224B196841
:1001D0000868B0E8F00F80F30988BFF36F8F4FF025
:1001E000000080F311884EF00D0E704700000000F3
:1001F00006480068006880F3088862B661B6BFF3FD
:100200004F8FBFF36F8F00DF00BF00BF08ED00E02E
:10021000EFF30980BFF36F8F0F4B1A6820E9F00FDF
:10022000106008B54FF0500080F31188BFF34F8F76
:10023000BFF36F8F04F0DAFB4FF0000080F31188FA
:10024000BDE8084019680868B0E8F00F80F3098835
:10025000BFF36F8F704700BF20000020EFF30580D1
:10026000704700000948804709480047FEE7FEE75D
:10027000FEE7FEE7FEE7FEE7FEE7FEE7FEE7FEE756
:1002800004480549054A064B704700001F24000832
:100290003101000808600020086600200862002084
:1002A00008620020032A40F2308010F0030C00F0B6
:1002B000158011F8013BBCF1020F624498BF11F8A0
:1002C00001CB00F8013B38BF11F8013BA2F1040259
:1002D00098BF00F801CB38BF00F8013B11F00303D1
:1002E00000F02580083AC0F0088051F8043B083A35
:1002F00051F804CBA0E80810F5E7121D5CBF51F8D7
:10030000043B40F8043BAFF30080D20724BF11F850
:10031000013B11F801CB48BF11F8012B24BF00F8B5
:10032000013B00F801CB48BF00F8012B704710B526
:10033000203AC0F00B80B1E81850203AA0E81850DD
:10034000B1E81850A0E81850BFF4F5AF5FEA027C9E
:1003500024BFB1E81850A0E8185044BF18C918C00D
:10036000BDE810405FEA827C24BF51F8043B40F8AE
:10037000043B08BF7047D20728BF31F8023B48BF93
:1003800011F8012B28BF20F8023B48BF00F8012BD1
:1003900070474FF000020429C0F0128010F0030CE7
:1003A00000F01B80CCF1040CBCF1020F18BF00F868
:1003B000012BA8BF20F8022BA1EB0C0100F00DB817
:1003C0005FEAC17C24BF00F8012B00F8012B48BF75
:1003D00000F8012B70474FF0000200B51346944619
:1003E0009646203922BFA0E80C50A0E80C50B1F18D
:1003F0002001BFF4F7AF090728BFA0E80C5048BFA1
:100400000CC05DF804EB890028BF40F8042B08BF3E
:10041000704748BF20F8022B11F0804F18BF00F83A
:10042000012B704770477047704710B500F008F80F
:10043000006810BD10B5044600F002F8046010BD5D
:1004400000487047A85F002000487047A85F002060
:100450007546FFF7F9FFAE4605006946534620F0A2
:100460000700854618B020B5FFF70AFFBDE8204019
:100470004FF000064FF000074FF000084FF0000B60
:1004800021F00701AC46ACE8C009ACE8C009ACE813
:10049000C009ACE8C0098D46704710B50446AFF3FB
:1004A00000802046BDE81040FFF789BE01491820B2
:1004B000ABBEFEE72600020070470000144D00208E
:1004C000286103F093F8286005F540541148C4F8FA
:1004D000540F012084F8400F022084F85E0F0E486C
:1004E0000088401C68610A48016900EB011191F81D
:1004F000CD1084F8411F02C898310EC980E80E0063
:10050000001F02F047FE1E2004F00CFAEBE700008B
:10051000E01700207B142E3E9E000020FEE7000026
:1005200088B04FF4FA7004F0FDF96F4C03F078F8DE
:1005300020606E480DF1040C00250EC88CE80E00FA
:1005400007C804AB4FF07C5683E8070003202071F6
:10055000334601AA294604F10800009501F052FE35
:1005600063480090334604AA002104F1500001F0D2
:1005700049FE6048DFF87081E4E94E60DFF878A159
:10058000A66008F59070DFF8749108F180064FF0CE
:10059000010B0690544C2068D0F80110D4F8C80024
:1005A00005F026FDC4F898002068D0F80510D4F8AE
:1005B000CC0005F01DFD0027C4F89C00F8B2002116
:1005C00001F0EEFC07EB870104EB81017F1CC1F811
:1005D000DC00042FF2DB2068D0F80900C4F8A0008A
:1005E000414C2079032802D0022807D009E004F109
:1005F000C80104F1A40002F057FE02E0204602F018
:10060000ABFE04F59C7494E80700A03C0392CDE98E
:10061000040107CC8DE8070006F1240104F19000E5
:100620000EC901F0FDFE304C2079032802D120468E
:1006300002F0A6FEBC34069894E80E0002F054FEC8
:100640004446D8F8A41054F8980F05F0D1FC07469A
:100650002169606805F0CCFC00906169A068983C55
:1006600005F0C6FC27F00042524507DA009A22F056
:100670000042524502DA84F805B000E06571204975
:1006800020F00040884202DA84F806B000E0A5714C
:100690000021069802F0D4FE2079012805D0A9F89F
:1006A0000050042004F03EF974E7B9F800000E4948
:1006B000401C80B28031A9F80000CD630D644D6408
:1006C0007D28EED90F49FA280D70EAD9BFF34F8F74
:1006D0000D4801680D4A01F4E06111430160BFF368
:1006E0004F8F00BFFDE70000A8110020B462000892
:1006F00000004842CDCCCC3D4260E53B8800002064
:100700000AD7A33B9C0000200CED00E00400FA0592
:10071000014800F0B3B900007404002030B590F82F
:1007200040500124AC40C56B6C6004686360436852
:10073000102B036803D099600068C26030BD9A60D6
:100740000068C16030BD70471CB5002300938DF870
:10075000000046208DF8010069208DF80200019309
:100760008DF804206B208DF803108DF80500102201
:1007700069460448FFF796FD06220249024801F047
:10078000C0FA1CBD7C5F00202C0400201FB5002295
:10079000009201920292039201246A468DF80000B1
:1007A000112931D2DFE801F0090B10123014301694
:1007B000181A1C1E3020242922001F2000E02020AF
:1007C0008DF8010002241FE02120F9E72420F7E73B
:1007D0002720F5E73120F3E73320F1E73520EFE775
:1007E0003620EDE73720EBE73A20E9E73B20E7E763
:1007F00042208DF801006C2003E043208DF80100B9
:100800007A208DF8020003246B20105510226946CF
:100810000548641CFFF746FD0123224602490348B0
:1008200001F01FFA1FBD00007C5F00202C04002097
:1008300008B5002100918DF800000A208DF8010014
:100840006D208DF802006B208DF8030010226946A0
:100850000448FFF727FD012304220249024801F062
:1008600000FA08BD7C5F00202C0400201FB5002288
:1008700000928DF80000FE208DF8010098208DF880
:10088000020001926B20029203928DF803108DF802
:100890000400102269460448FFF704FD05220249BE
:1008A000024801F02EFA1FBD7C5F00202C040020BE
:1008B0007CB5002500958DF80000F6208DF801002C
:1008C000069C01958DF80210100A8DF804208DF811
:1008D00003008DF805308DF806406B208DF8070079
:1008E000102269460448FFF7DDFC0822024903484C
:1008F00001F007FA7CBD00007C5F00202C04002082
:1009000072B6FEE710B590F821100022022905D03A
:100910000421816380F82020012010BD01680B684C
:1009200023F00E030B6001680B6823F001030B60DA
:1009300090F84030C46B012101FA03F3636080F842
:10094000211080F82020104610BD00002DE9F05F36
:1009500090F821100024022903D00421816301248E
:1009600085E001680A6822F00E020A6001680A68E0
:1009700022F001020A603F4E3E4FB215DFF8F4C08C
:10098000DFF8F090DFF8ECA0DFF8E8B0DFF8E4E0A3
:100990000168783F13011502ACF1640CA9F150090C
:1009A000AAF13C0AABF1280BAEF1140E4FF48018FB
:1009B000B14227D9B9420ED0614512D049451DD068
:1009C000514518D0594518D0714501D1424615E01E
:1009D000294EB14201D1012210E0274E1436B14216
:1009E00001D110220AE0244E2836B14206D0224A14
:1009F0003C32914201D11A4600E02A461E49091FA5
:100A00000A602BE0B94213D0614517D0494522D086
:100A100051451DD059451DD0714501D142461AE0BE
:100A2000B14202D14FF0807215E0134EB14201D1B4
:100A3000012210E0104E1436B14201D110220AE01A
:100A40000D4E2836B14206D00B4A3C32914201D1BC
:100A50001A4600E02A46074980394A60012180F899
:100A60002110002180F82010416B01B188472046F9
:100A7000BDE8F09F80000240080402402DE9F05FCD
:100A8000C16B0A6801680B68046C4FF0040808FA2F
:100A900004F8844D844E854FDFF814C2DFF81492B9
:100AA000DFF814A2DFF814B2DFF814E218EA020F3C
:100AB00065D05FEA437862D50A68920603D40A6873
:100AC00022F004020A60DFF8F0814FF480620168CE
:100AD00008F1140813011402414524D9A9420DD08C
:100AE000B1420FD0B9421AD0614515D0494515D051
:100AF000514501D1120312E0594501D104220EE003
:100B0000714501D140220AE06D4D1435A94206D04D
:100B10006B4A2832914201D11A4600E022466749C9
:100B2000091F0A6029E0A94213D0B14215D0B94289
:100B300020D061451BD049451BD0514502D14FF40F
:100B4000800217E0414502D14FF0806212E0594522
:100B500001D104220EE0714501D140220AE0584D36
:100B60001435A94206D0564A2832914201D11A467C
:100B700000E022464B4908394A60C16A71E04FF0F3
:100B8000020808FA04F818EA020F70D05FEA8378C6
:100B90006DD50A68920606D40A6822F00A020A6035
:100BA000012180F82110DFF810814FF400720168F4
:100BB00008F1140813011402414524D9A9420DD0AB
:100BC000B1420FD0B9421AD0614515D0494515D070
:100BD000514501D1120312E0594501D102220EE024
:100BE000714501D120220AE0354D1435A94206D0C5
:100BF000334A2832914201D11A4600E022462F4959
:100C0000091F0A6029E0A94213D0B14215D0B942A8
:100C100020D061451BD049451BD0514502D14FF42E
:100C2000001217E0414502D14FF0007212E0594521
:100C300001D102220EE0714501D120220AE0204DAF
:100C40001435A94206D01E4A2832914201D11A46D3
:100C500000E02246134908394A60002180F820103C
:100C6000816A00291CD0BDE8F05F0847FFE708252E
:100C7000A540154214D01A0712D50A6822F00E02B8
:100C80000A6090F84020C36B012101FA02F25A6019
:100C9000816380F82110002180F82010016BE0E7CB
:100CA000BDE8F09F080002401C00024030000240F6
:100CB00044000240580002406C0002400804024018
:100CC0001C04024030B560B11A4B026814219A42EC
:100CD00009D2194B1344B3FBF1F1890001641749A0
:100CE0000AE0012030BD134B5B421344B3FBF1F12A
:100CF000890001640F490839C163022180F821107D
:100D0000136843F6F0718B43F0E901142143D0E9F5
:100D100002452C43214304692143446921438469EA
:100D20002143194311600021416301224277017779
:100D3000084630BD08040240F8FFFDBF0000024035
:100D400070B5044690F82000002501280CD0012041
:100D500084F8200094F821600020012E06D084F849
:100D600020000225284670BD022070BD022684F8AE
:100D70002160A0632068066826F001060660204610
:100D8000FFF7CCFCE06A00282068016802D041F03F
:100D90000E0106E021F0040101602068016841F0C5
:100DA0000A0101602068016841F001010160D9E792
:100DB00070B5044600F010F90546601C02D00448E6
:100DC0000078044400F008F9401BA042FAD370BD3B
:100DD000100000202DE9F84FDFF8C8910024A9F198
:100DE000040B23460F2709F1040AABF1040ED1E0EE
:100DF0000125A54006EA0502AA4276D1DFF8A8C17E
:100E00004E68A6EB0C0866452BD00DDC032E34D0C3
:100E100005DC36B3012E19D0022E2FD11BE0112E86
:100E200016D0122E2AD119E0B8F5881F19D006DC89
:100E3000B8F5803F15D0B8F5801F1FD111E0B8F587
:100E4000001F0ED0B8F5041F18D10AE0CB6815E0DA
:100E5000CB681B1D12E0CB6808330FE0CB680C3366
:100E60000CE08B682BB1012B4FF0080303D04561D8
:100E700004E0042302E0056100E00023FF2A01D81A
:100E8000064601E000F104064FEA840501D9A5F108
:100E90002005D6F8008007FA05FC28EA0C0803FABA
:100EA00005F548EA0508C6F800804D68ED0070D5E4
:100EB0003E4DAE6946F00106AE61AD6924F0030611
:100EC00005F0010500953A4D06EB050CDCF80850DD
:100ED000A607360F07FA06F825EA0805DFF8D480DA
:100EE000404503D14FF0000825E052E0DFF8C8800C
:100EF000404502D14FF001081DE0DFF8C0804045B9
:100F000002D14FF0020816E0DFF8B480404502D16C
:100F10004FF003080FE0DFF8AC80404502D14FF0FE
:100F2000040808E0DFF8A080404502D14FF0050832
:100F300001E04FF0060808FA06F848EA0508CCF880
:100F400008804D68D9F80060ED024D4601D5164382
:100F500000E096432E604D68DAF80060AD02554619
:100F600001D5164300E096432E604D68DBF8006023
:100F7000AD035D4601D5164300E096432E604D68F3
:100F8000DEF80060ED03754601D5164300E0964398
:100F90002E60641C0A681646E2407FF429AFBDE863
:100FA000F88F0000080401400000111000100240FA
:100FB0000000014000080140000C01400010014009
:100FC0000014014000180140001C01400AB10161F9
:100FD00070470904FBE70000014880687047000083
:100FE0001000002002488168027811448160704737
:100FF00010000020074810B5016841F010010160A1
:10100000032000F07BF80F2000F006F800F024F831
:10101000002010BD0020024070B50D4D04464FF475
:101020007A712878B1FBF0F00A490968B1FBF0F059
:1010300000F0E2FA48B9102C07D200222146501ED7
:1010400000F03CF800206C6070BD012070BD000015
:10105000100000201C0000200F4808B5816941F0F5
:1010600001018161816901F001010091C16941F0D3
:101070008051C161C069002200F0805000900F21B2
:10108000901E00F01BF80548416821F0E06141F036
:101090000071416008BD00000010024000000140E6
:1010A000002809DB00F01F02012191404009800067
:1010B00000F1E020C0F8001170470000F0B40E4BC2
:1010C0001B680C46C3F30223C3F10705042D00D9A6
:1010D0000425191D072901D2002300E0DB1E01268B
:1010E00006FA05F1491E214099409E40761E1640A1
:1010F0003143F0BC01F0B3BC0CED00E0064900F058
:10110000070208684FF6FF03184040EA0220034A2E
:1011100010430860704700000CED00E00000FA0585
:101120002DE9F0470F46050061D0434E306800F0CE
:101130000700B84209D2306820F007003843306019
:10114000306800F00700B84251D128683B4C810755
:1011500012D5400703D5606840F4E06060602878ED
:10116000000703D5606840F4605060606068A9685B
:1011700020F0F000084360602878C00728D0686835
:10118000012810D02168022810D0890700292EDA02
:10119000616821F0030101436160FFF71DFF804694
:1011A00041F288390DE021688903EFE78901EDE715
:1011B000FFF712FFA0EB0801494502D90320BDE863
:1011C000F0876068696800F00C00B0EB810FEFD128
:1011D000306800F00700B8420BD9306820F00700F3
:1011E00038433060306800F00700B84201D0012079
:1011F000E5E72878400705D56068E96820F4E060F5
:10120000084360602878000706D56068296920F4E3
:10121000605040EAC100606000F038F86168084A38
:10122000C1F30311515CC8400649086006480068D4
:10123000FFF7F2FE0020C2E700200240001002404B
:101240009A6200081C000020140000200448054990
:1012500000684968044AC1F30221515CC8407047E4
:101260001C00002000100240AA6200080448054942
:1012700000684968044AC1F3C221515CC840704704
:101280001C00002000100240AA6200080E4A5168AB
:101290000E4801F00C03042B11D0082B0FD10C4881
:1012A000C1F38343C903C05C0AD55168084AC1F33E
:1012B0004041921E515C054A5043B0FBF1F070472B
:1012C00004494843704700000010024000127A00B1
:1012D0008A62000800093D002DE9F84F040070D033
:1012E0002078C04DC00749D06868C0F3810001284C
:1012F00007D06868C0F38100022809D16868C0037C
:1013000006D52868800339D560680028E7D035E025
:101310006068B0F5803F0BD010B1B0F5A02F11D0B0
:10132000286820F480302860286820F4802002E0BB
:10133000286840F480302860606890B1FFF74CFE68
:1013400006460AE0286840F480202860F0E700BFE5
:10135000FFF742FE801B642873D828688003F7D506
:101360000CE0FFF739FE064605E000BFFFF734FE4C
:10137000801B6428F0D828688003F7D420789A4E20
:1013800080074FF001094FF0000839D5686810F068
:101390000C0F07D06868C0F38100022809D1686883
:1013A000C00306D42868800714D52069012808D115
:1013B00010E02069B0B1C6F80090FFF70DFE0746B7
:1013C00005E00AE1FFF708FEC01B0228C4D8286820
:1013D0008007F7D52868616920F0F80040EAC1006D
:1013E00028600DE0C6F80080FFF7F6FD074604E030
:1013F000FFF7F2FDC01B022823D828688007F7D426
:10140000207800072CD57948A169D9B1C0F800909F
:10141000FFF7E2FD074604E0FFF7DEFDC01B0228F0
:101420000FD8686A8007F7D571484FF4FA51006801
:10143000B0FBF1F0009000BF0098411E0091FAD27D
:101440000EE080E0C0F80080FFF7C6FD074604E02C
:10145000FFF7C2FDC01B022875D8686A8007F7D461
:101460002078400760D5E8690027C00008D4E86903
:1014700040F08050E861E869012700F0805000905A
:101480005C480168C90513D40168834641F4807142
:101490000160FFF7A1FD824606E000BFFFF79CFD5B
:1014A000A0EB0A0064284ED8DBF80000C005F5D593
:1014B000E06801280AD008B1052813D0286A20F076
:1014C00001002862286A20F0040002E0286A40F047
:1014D00001002862E06841F2883B98B1FFF77CFD8B
:1014E00082460BE0286A40F004002862EEE700BF65
:1014F000FFF772FDA0EB0A0159455AD8286A800708
:10150000F6D50CE0FFF768FD824605E0FFF764FDC5
:10151000A0EB0A0159454CD8286A8007F6D41FB1C0
:10152000E86920F08050E861E06988B36968C1F338
:101530008101022944D00228C6F8608004D0FFF758
:101540004BFD044638E034E0FFF746FD074604E073
:10155000FFF742FDC01B02282BD828688001F7D472
:10156000206AB0F5803F05D16868A16820F400309A
:1015700008436860D4E908010843696821F47411DC
:1015800008436860C6F86090FFF726FD044606E051
:1015900025E000BFFFF720FD001B022809D82868BE
:1015A0008001F7D51BE000BFFFF716FD001B0228E6
:1015B00002D90320BDE8F88F28688001F4D40EE03A
:1015C0000128F7D06868226A00F48031914204D182
:1015D000616A00F47010884201D00120EAE700201F
:1015E000E8E700000010024000004242800442424E
:1015F0001C0000200070004010B5401EB0F1807F3C
:1016000001D3012010BD4FF0E02460610F2160176D
:1016100001F025FA0020A06107202061002010BD04
:1016200038B5044690F84200202801D0022038BD89
:1016300051B14AB10120206300206063204601F0CF
:101640004BF9216B012901D0012038BD21680A68BE
:101650004968009121680C3151E8002F42F01002D6
:1016600041E80023002BF5D138BD000010B500681B
:101670000A49884211D10E21094803F003FA28B122
:1016800007490E22A1F10E00FEF70CFEBDE8104046
:101690000E2203490348FFF7C3BF10BD00440040BA
:1016A0009A5F0020E403002070470000F8B501684D
:1016B00004460868CA684B6910F00F0F4FF0000528
:1016C00059D003F0010602F49077374365D0C10783
:1016D00005D0D10503D5616C41F00101616441077A
:1016E00005D5D90703D0616C41F00201616481071F
:1016F00005D5D90703D0616C41F00401616401078D
:1017000007D502F02001314303D0616C41F008019C
:101710006164616C00293AD0800604D5900602D538
:10172000204601F01BF820684069616CC0F380100E
:10173000090700D460B3204600F0DBFF2068406951
:10174000400621D52068143050E8001F21F04001E8
:1017500040E80012002AF5D1E06BA8B16D49416361
:10176000E06BFFF7F3F8002811D0E06B416B01B09C
:10177000BDE8F040084783060FD593060DD52046F7
:10178000BDE8F84000F0EABF2046FFF78DFFF8BD46
:101790002046FFF789FF6564F8BD266B2023012EE4
:1017A0007CD1C6067AD5D60678D5086848680090F8
:1017B00048694FF00206400640D5E16B0868406872
:1017C0000004000CE8D0A28D8242E5D9E08588694A
:1017D00020282DD020680C3050E8001F21F48071A3
:1017E00040E80012002AF5D12068143050E8001FAC
:1017F00021F0010140E80012002AF5D120681430E0
:1018000050E8001F21F0400140E80012002AF5D105
:1018100084F84230256320680C3050E8001F21F026
:10182000100140E80012002AF5D1E06BFFF76AF8DA
:101830006663A08DE18D401A81B22AE0A08DE18D12
:10184000401A81B2E08D0028A6D00029A4D02268D9
:101850000C3252E8000F20F4907042E80007002F8D
:10186000F5D12068143050E8002F22F0010240E842
:101870000027002FF5D184F84230256320680C3012
:1018800050E8002F22F0100240E80023002BF5D191
:1018900066632046FFF7EAFEF8BDFFE705062BD595
:1018A000150629D594F841002128F5D1A068B0F596
:1018B000805F01D12069B0B1206A411C216221689A
:1018C00000784860E08C401E0004000CE084E3D106
:1018D0002068C16821F08001C1602068C16841F0C2
:1018E0004001C160D8E7206A0088C0F30800486062
:1018F000206A801C2062E5E74006CDD55006CBD596
:10190000CA68204622F04002CA6084F8413000F0E4
:1019100011FAC1E7F525000870B5040004D094F869
:101920004100002510B106E0012070BD84F8405050
:10193000204600F023F8242084F841002068C16884
:1019400021F40051C160204600F06AFF206801695F
:1019500021F4904101612068416921F02A0141612F
:101960002068C16841F40051C1606564202084F89A
:10197000410084F842006563002070BD2DE9F0430A
:1019800085B00024009401940294039405460368F2
:101990007E487D4F061502210322DFF8F4C14FF483
:1019A0000069BB4225D1C36943F40023C361C36905
:1019B00003F400230493836943F010038361806977
:1019C000CDE9006100F01000CDE9032069466546CD
:1019D0006046FFF7FFF9CDE9009469462846029476
:1019E000FFF7F8F9002205213420FFF767FB3420C8
:1019F00031E0DFF8A0810427434531D1C36943F4C6
:101A00008013C361C36903F480130493836943F0B3
:101A100010038361836903F010030493836943F027
:101A2000200383618069039200F020000490B802D3
:101A3000CDE9000169466046FFF7CCF9CDE90074B5
:101A4000694655480294FFF7C5F900220521352063
:101A5000FFF734FB3520FFF723FB05B0BDE8F0832B
:101A6000DFF838C1DFF83881634526D1836943F454
:101A700080438361836903F480430493836943F063
:101A8000040383618069039200F0040004904FF422
:101A90000070CDE9000169464046FFF79BF9CDE9AA
:101AA0000064694640460294FFF794F9002205213C
:101AB0002520FFF703FB2520CDE7DFF8E8C06345CD
:101AC00039D1C36943F40033C361C36903F40033FC
:101AD0000493836943F0040383618069CDE9007155
:101AE00000F00400CDE9032069464046FFF772F993
:101AF0000820CDE90004694640460294FFF76AF9E0
:101B00002A4E2948C6E900048020C6E90240346113
:101B100080017461C6E906403046FFF7D3F808B18A
:101B2000FEF7EEFEEE630022052126207562FFF728
:101B3000C5FA26208FE71E4DAB428ED1C36943F410
:101B40008023C361C36903F480230493836943F052
:101B5000080383618069CDE9006100F00800CDE9E8
:101B60000320144D69462846FFF734F9CDE9009467
:101B7000694628460294FFF72DF900220521272007
:101B8000FFF79CFA272066E7004C00400010024057
:101B90000010014000500040001401400038014096
:101BA00000080140004400406C0002407404002022
:101BB00000480040000C014090F84230202B01D03A
:101BC0000220704721B11AB10023036300F0CCBE9C
:101BD0000120704710B500681A4988421FD11A4C7D
:101BE0001A49607822780A54401CC1B261706B2A8D
:101BF0000ED11648491E8138802200F8011B134976
:101C0000FEF750FB80211148FEF7C3FB00206070F7
:101C1000BDE8104001220C490D48FFF7CDBF0D492A
:101C2000884203D1BDE8104000F008BB0A49884251
:101C300006D00A49884203D1BDE8104000F03CBB01
:101C400010BD0000004800408A0000206D130020F5
:101C50002C040020003801400044004000500040A7
:101C600070472DE9F843044690F84100984616461F
:101C70000D46202802D00220BDE8F88385B17EB150
:101C800000206064212084F84100FFF7A5F9A684B4
:101C90008146E684A0682027B0F5805F02D003E08B
:101CA0000120E9E7206910B12E4600250EE000264C
:101CB0000CE08021204600F072FEA8B9C6B116F8EB
:101CC000010B21684860E08C401EE084E08C4B46AC
:101CD0004FF00002CDF800800028EAD14FF040011B
:101CE000204600F05CFE40B184F841700320C3E759
:101CF00035F8020BC0F30800E3E784F841700020D8
:101D0000BAE790F84130202B01D00220704779B11A
:101D100072B101628284C28400214164212180F871
:101D200041100068C16841F08001C1600020704727
:101D3000012070477047FEE7094808B5416941F046
:101D4000010141614069002200F00100009005217D
:101D50001020FFF7B3F9BDE808401020FFF7A0B945
:101D60000010024010B59CB01C2216496846FEF7D0
:101D7000DEFA0021684601F01EFD134C11491C22B9
:101D800020601C3107A8FEF7D2FA002107A801F055
:101D900012FD0C4960601C2238310EA8FEF7C7FA0C
:101DA00000210EA801F007FD0649A0601C22543155
:101DB00015A8FEF7BCFA002115A801F0FCFCE060B4
:101DC0001CB010BD18620008000000202DE9F0438F
:101DD00085B00024284800940194029403948169FA
:101DE00041F040018161816901F040010491816904
:101DF00041F004018161816901F00401049181696C
:101E000041F008018161816901F008010491816953
:101E100041F010018161816901F010010491816933
:101E200041F0200181618069DFF8508000F02000DE
:101E30000490012220214046FFF7C8F8DFF84090C7
:101E4000012220214846FFF7C1F82025032701265B
:101E500003970095CDE9016469464046FEF7BAFF55
:101E600003970095CDE9016469464846FEF7B2FF45
:101E700005B0BDE8F08300000010024000180140EA
:101E8000000C01400C4810B50A4901604FF4E131E3
:101E90004160002181600C22C160C0E904128161AF
:101EA000C161FFF739FD002803D0BDE81040FEF7FF
:101EB00027BD10BD004C00400C0300200C4810B59D
:101EC0000A4901604FF416514160002181600C22E3
:101ED000C160C0E904128161C161FFF71DFD0028E6
:101EE00003D0BDE81040FEF70BBD10BD0050004010
:101EF000540300200C4810B50A4901604FF4E13149
:101F00004160002181600C22C160C0E9041281613E
:101F1000C161FFF701FD002803D0BDE81040FEF7C6
:101F2000EFBC10BD003801409C0300200C4810B5E8
:101F30000A4901604FF4E1314160002181600C22C7
:101F4000C160C0E904128161C161FFF7E5FC0028AE
:101F500003D0BDE81040FEF7D3BC10BD00440040E4
:101F6000E40300200C4810B50A4901604FF4E13148
:101F70004160002181600C22C160C0E904128161CE
:101F8000C161FFF7C9FC002803D0BDE81040FEF78F
:101F9000B7BC10BD004800402C040020FEE7000044
:101FA00070B50C46054601F075FB0849C5EB0510F8
:101FB00001EB00101CB1012C04D0002070BDD0F842
:101FC000DC0070BDD0F8D80070BD000020140020E7
:101FD00000F050F84FF4FA7002F0A4FC234E244CA9
:101FE00001272078D0B10A216078FEF7CFFB0520C9
:101FF00002F098FC60780022C0EB001106EB0111A2
:1020000051F8081C01F088FB6078401CC0B2607079
:10201000042826D96770207810B322E05FF000050D
:10202000C5EB051006EB0010F021FEF7D4F96D1C8E
:10203000042DF5DB6078FEF7FBFB142002F072FC48
:1020400001216078FEF712FC142002F06BFC0222E2
:1020500000216078FEF778FB142002F063FCD3E7E0
:102060002770052002F05EFCBBE700002014002072
:102070009C00002010B50548FFF74EFCBDE810405D
:10208000012203490148FFF797BD00002C040020FE
:102090008A000020FEE7000070B54FF4FA70FEF7EA
:1020A00087FE0F4CC5252220257060703223022246
:1020B00021460C48FFF7D5FD1420FEF779FE257068
:1020C000302060703223022221460648FFF7C9FD06
:1020D000BDE870400E2204490248FFF7A1BA000093
:1020E000B6000020E40300209A5F00202DE9F047AD
:1020F000040011D0206C60648146E06B2064C4E968
:1021000006218046104603F073FF0546E063207801
:1021100028B101283BD038E00020BDE8F0872946EF
:10212000606803F05DFE60622946A06803F058FE17
:10213000A16A03F06BFC0646A062606BA063206B93
:1021400060634146284603F053FF01462063E06880
:1021500003F046FEE0623046616903F00DFF6069FE
:1021600008D380F00040A16A03F006FF03D2606943
:1021700080F00040A062D4E9090103F047FCE16A65
:1021800031E0206980F000402062206AC5E74146C6
:10219000284603F02DFF616803F022FE07466062C7
:1021A0002946A06803F01CFE0646A062606BA0638F
:1021B000206B60630121404603F0EFFF294603F0E6
:1021C0000CFF494603F022FC01462063E06803F05F
:1021D00007FE0546E0623146384603F017FC294603
:1021E00003F014FC216A03F011FC2062216903F062
:1021F000C3FE2069C8D380F00040216A03F0BCFE12
:10220000C3D2BEE710B50028029C16D0002A14D015
:102210000170116841605168816000F10C0C916897
:102220008CE81A0000218163416301630162C1628D
:102230008162416241640164C16310BD70B51B4C91
:102240000D20012220701B20607019491948FFF7EA
:10225000B3FC174D0026A87880B1012816D00228BB
:102260000BD12178A01C02F0EFFB28B10F48227897
:10227000A11C5930FEF716F8AE7070BD2878A5285D
:10228000FBD10121A970A070697070BD2978A529C2
:10229000F2D068782218401C9170C0B26870217822
:1022A0008142F2D10220A870DBE700006C570020C9
:1022B000A00000209C0300202DE9F041274D284C70
:1022C0002846A9780078002621B1012909D00229E1
:1022D0001CD012E05D2810D10121A97060766970D0
:1022E0000BE05D2808D069786218491C5076C8B2A6
:1022F0006870062808D000E0AE70BDE8F041012209
:1023000016491848FFF758BC0220A870A07F6D2816
:10231000F2D1D4F819002060B4F81D00A0806078D4
:1023200001280FD00228E7D1A07803F011FD0B4F50
:1023300008373860E07803F00BFD7860384601F02C
:1023400039F9D9E70548A178C01C0170E1784170DE
:102350002179817001F020F9CEE700008C00002087
:10236000ED130020540300200D4C0E4D002001F011
:1023700041F988B1002220212046FEF727FE0120E6
:1023800001F038F950B1002220212846FEF71EFE48
:10239000642002F0C7FAE9E70122ECE70122F3E743
:1023A000000C01400018014010B5FEF71BFE02F0C2
:1023B0003FFC012803D0BDE8104002F0CBBB10BDAC
:1023C00030B58FB028216846FEF705F814210AA819
:1023D000FEF701F801210804CDE900100024029461
:1023E00002250491CDE907504FF4E01009906846AA
:1023F000FEF772FF08B172B6FEE70F20CDE90A05BD
:102400004FF48060CDE90C400E9002210AA8FEF73F
:1024100087FE002801D072B6FEE70FB030BD7047CE
:102420002DE9F04F85B007460E4615469846694C93
:102430004FF0804ADDF83CB0119803F0BBFACDE9CB
:102440000201DDE9120103F0D3FD049003F0B2FABA
:10245000CDE900013146206803F00EFC04D1294685
:10246000606803F009FC08D05A48143800F11401E0
:1024700008300EC94EC0C0E90058DFF85891284610
:10248000A9F10C09D9F8041003F0B2FD03F092FA97
:102490000022534601F0BAF9044688463046D9F87E
:1024A000001003F0A5FD03F085FA0022534601F069
:1024B000ADF92246434602F0C3FC02F045F902F0B2
:1024C0008DFC454C59462060284603F091FD03F0F1
:1024D00071FA0022534601F099F9054688463046C4
:1024E0000E9903F085FD03F065FA0022534601F0D2
:1024F0008DF92A46434602F0A3FC02F025F902F0CA
:102500006DFC6060DDE902610D46DDE9000100223D
:10251000534601F07BF94FF0FF38424603F00FFEBF
:1025200032462B4602F048FD02F058FC0546A060FA
:102530004146206803F031FE294603F01DFC04D219
:102540004146206803F029FEA060D4E9000103F0B1
:102550004FFDA16803F010FC0ED2D4E90001049DE8
:1025600003F046FD012103F018FE119903F038FC39
:10257000294603F0BFFA24E0D4E9010103F0FCFB93
:1025800001D338681EE0DDE902610D46DDE9000196
:102590000022534601F03AF9424603F0D0FD32469C
:1025A0002B4602F009FD06460D460498616803F0CB
:1025B00017FC03F0FFF932462B4602F0FDFC02F057
:1025C0000DFC3860DDE9121201F02EF8386005B01C
:1025D000BDE8F08F705F0020A80000200148FFF7E1
:1025E00065B800000C0300200148FFF75FB8000049
:1025F0005403002010B5406A0021C185C184FFF753
:1026000053F810BD70B5446A2068406994F84110D1
:10261000C0F3C0100025212904D118B1E58420465B
:1026200000F08EF82068406994F84210C0F38010E2
:10263000222904D118B1E585204600F05AF8606CD3
:1026400040F0100060642046FFF72EF870BD10B512
:102650000146406A096809684FF0000289062ED4D5
:10266000C28501680C3151E8003F23F4807341E8D2
:102670000034002CF5D10168143151E8003F23F0FB
:10268000010341E80034002CF5D10168143151E810
:10269000003F23F0400341E80034002CF5D1202115
:1026A00080F84210016B012909D101680C3151E811
:1026B000003F23F0100341E80034002CF5D14263C1
:1026C000016B012902D0FFF785FA10BD818DFEF75D
:1026D000CDFF10BD10B5406A01214163016B012996
:1026E00002D0FFF7BDFA10BD818D4908FEF7BEFF8D
:1026F00010BD01680C3151E8002F22F4907241E8BE
:102700000023002BF5D10168143151E8002F22F08D
:10271000010241E80023002BF5D1016B012909D109
:1027200001680C3151E8002F22F0100241E800232B
:10273000002BF5D1202180F8421000210163704761
:1027400001680C3151E8002F22F0C00241E800235B
:10275000002BF5D1202180F84110704708B590F882
:102760004210222901D0022008BD82684FF4805314
:102770009A4201D1016921B1816A9A421BD04AB1C2
:102780000AE00268816A5268C2F308020A80816A1C
:10279000891C08E0026972B10268526802F07F0287
:1027A0000A70816A491C8162C18D491E0904090CA5
:1027B000C18503D01BE002685268F1E70168CA686E
:1027C00022F02002CA600168CA6822F48072CA60DE
:1027D00001684A6922F001024A61202180F8421012
:1027E00000214163026B012A03D0FFF7F3F90020B7
:1027F00008BD016301680C3151E8002F22F010027E
:1028000041E80023002BF5D101680A68D20602D501
:102810000A6849680091818DFEF728FFE7E700000C
:1028200070B5044600680169E26821F44051114323
:1028300001612169A0680843616908432168CA6889
:1028400041F20C639A430243CA6020684169A2695D
:1028500021F44071114341611E492068884202D130
:10286000FEF704FD01E0FEF7F1FC00EBC00101EB17
:102870000012606864218000B2FBF0F3B3FBF1F357
:102880006FF018067343B2FBF0F5B2FBF0F605EB00
:102890008305322303EB0515B5FBF1F5B6FBF1F625
:1028A00005F0F00505EB0615B2FBF0F6B2FBF0F013
:1028B000B0FBF1F06FF01802504306EB800003EB21
:1028C0000010B0FBF1F0216800F00F002844886090
:1028D00070BD00000038014038B581620446828531
:1028E000002013466064222284F84220E56B1B4AD4
:1028F000AA62E56B1A4AEA62E56B1A4A2A63E26B3E
:1029000050630A462168E06B091DFEF719FA20683A
:10291000016840680090206948B120680C3050E898
:10292000001F41F4807140E80012002AF5D12068B0
:10293000143050E8001F41F0010140E80012002A65
:10294000F5D12068143050E8001F41F0400140E804
:102950000012002AF5D1002038BD00004F260008E3
:10296000D52600080526000881628285C2850021DF
:102970004164222180F84210016921B10168CA68CE
:1029800042F48072CA6001684A6942F001024A61F9
:102990000068C16841F02001C160002070472DE946
:1029A000F843984617460D460446089E24E0701CDE
:1029B00022D0FEF711FBA0EB0800B0421AD8CEB12E
:1029C0002068C168490717D5802D15D0402D13D038
:1029D0000168C94309070FD40168002540680090C9
:1029E0002046FFF786FE0820606484F840500120EE
:1029F000BDE8F8830320FBE72068006835EA0000A3
:102A000004D00020B842D2D00020F1E70120F9E73D
:102A10000148FEF74BBE00009C0300200148FEF772
:102A200045BE0000E40300200148FEF73FBE000061
:102A30002C040020FEE7490050EAC12018BF042002
:102A40004A0D18BF40F0010040F2FF72B2EB515F37
:102A500008BF40F00200012808BF052070470907A1
:102A6000090E002804DB00F1E02080F80014704714
:102A700000F00F0000F1E02080F8141D7047000006
:102A80002DE9F74F144694B00021C4E902111599BD
:102A9000079121F00045C9498D4206DC1599C4E92A
:102AA000000117B00020BDE8F08FC549DFF814A37E
:102AB000A9423CDD0799C44E0029C44FC44A159968
:102AC000534619DD02F08CFE554506D0C14AC24B73
:102AD00002F086FEC4E900010AE04FF0D352BE4B7B
:102AE00002F07EFE32463B4602F07AFEC4E9000167
:102AF00017B00120BDE8F08F02F0A2F9554506D0CD
:102B0000B44AB54B02F09CF9C4E900010AE04FF069
:102B1000D352B14B02F094F932463B4602F090F9A1
:102B2000C4E9000117B04FF0FF30BDE8F08FAB49AA
:102B3000A942159978DB21F0004183468846A84ACE
:102B4000A84B02F027FC0022A74B02F079F902F013
:102B50008BFB099002F0B7FB06460F469C4A534692
:102B600002F018FC43465A4602F048FD80468A4669
:102B7000984A994B3046394602F00CFC2A0D012543
:102B80000B924246534602F039FD032DC4E9000181
:102B900039D00B98C1F30A51401A05EB4511113990
:102BA000814230DA9148C346784400EB0510CDF8F5
:102BB0000CA00C90D0E900233046394602F0EAFB25
:102BC00002460B46049106905846039902F008FE0F
:102BD00080468A4602460B465846039902F000FE9C
:102BE000049B069A02F0FCFD83460C98039139463B
:102BF000D0E90223304602F0CDFB5A46039B02F097
:102C0000EFFD6D1CBDE707980028A2BF099817B01B
:102C1000BDE8F08F616881F000416160099817B0EC
:102C20004042BDE8F08FFFE784461598C1F31301D9
:102C3000C0F30A50A0F2F5304FEA601800F01F060A
:102C4000C6F12000139000200690079041F4801EEA
:102C500005206D4676B1664A08EB00017A4452F8C9
:102C6000213002EB8101B3404A68139922FA01F145
:102C7000194305E05F4908EB0002794451F822103E
:102C8000A1FB0E27A1FB0C131A449A4234BF012367
:102C9000002303EB070A05EB8003D3E901B70F44D8
:102CA0008F4234BF0121002193448B4411B19345DD
:102CB00002D903E0934501D2012100E00021C3E9DC
:102CC00001B7514445F82010011EA0F10100C1DCFC
:102CD0000298059F00F10050800F12900298DDE9E4
:102CE0000356800002F0EFFA834628460D9102F069
:102CF00001FB6FF01D0203F022FACDE90E01304610
:102D000002F0F8FA6FF03D0203F019FA80468A46A5
:102D1000384602F0EFFA6FF05D0203F010FA074652
:102D200042465346119102F08BF8DDE90E2302F082
:102D300087F85A460D9B02F083F800250E465A4646
:102D400028460D9B02F04CFDDDE90E2302F048FD04
:102D50004246534602F044FD3A46119B02F04EFCB7
:102D6000DFF898A0244A534602F014FB0746884631
:102D7000234A244B3146284602F00CFB3A46434690
:102D800002F05EF8074688464FF0A84253463146A7
:102D9000284602F0FFFA3A46434602F051F8159AE7
:102DA00012F0004F04D0129A81F000415242129268
:102DB000C4E90001129817B0BDE8F08FFB21E93F8C
:102DC0007CD90240FB21F93F7370032E8A19A33B83
:102DD000000040543163621A61B4D03DFB21394197
:102DE00083C8C96D305FE43F0000E03FE43A000073
:102DF000603A0000423A0000182D4454FB21F93D8E
:102E00003326A611460B113C2DE9FF4D21F0004859
:102E100007460C46B8F1795F08DA02F025FA002877
:102E200001BF0020324904B0BDE8F08D3A46234688
:102E30001046194602F0AEFA054602462D480E46E7
:102E40000B460621784400F05DF82A46334602F02E
:102E5000A1FADDE9022382468B463846214602F07C
:102E600099FA04460F4652465B462846314602F020
:102E700091FA22463B4602F0B3FC07468A464FF0E1
:102E8000FF322846314603F05AF91B4A90450ADAC8
:102E90003A46534602F0A4FC04B00022BDE8F04DCF
:102EA000134B02F0ABBB154A4245A8BFA8F500156D
:102EB0004FF00004B8BF124D22462B4602F090FCA2
:102EC0000646884622462B460020094902F088FC27
:102ED00004460D463A4653463046414602F080FCD1
:102EE00004B022462B46BDE8F04D02F087BB00003F
:102EF0000000F03F103800003333D33F0000E93FBB
:102F00000000D23F2DE9F0414F1E00EBC7010446FF
:102F1000D1E9000115461E4637F006020DD02A46BB
:102F2000334602F037FA7F1E04EBC703D3E90023D0
:102F300001F086FF37F00602F1D1022F25D0042FD1
:102F400013D0062F18BFBDE8F0812A46334602F0A1
:102F500021FAD4E90A2301F073FF2A46334602F02E
:102F600019FAD4E9082301F06BFF2A46334602F030
:102F700011FAD4E9062301F063FF2A46334602F032
:102F800009FAD4E9042301F05BFF2A46334602F034
:102F900001FAD4E9022301F053FF2A46334602F036
:102FA000F9F9D4E90023BDE8F04101F049BF000080
:102FB0002DE9FF4D054621F0004084B00C46B0F1EC
:102FC000795F0BDA2846FFF736FD042808BF00F0CA
:102FD0007FF8284608B02146BDE8F08D2A460B460A
:102FE000104602F0D7F906460F462A46234602F05D
:102FF000D1F9804626488A4632463B460521784428
:10300000FFF780FF83461098029160B3214A224B5C
:103010004046514602F0BEF9CDE900015A4640460D
:103020005146029B02F0B6F982468846DDE9060168
:103030004FF0FF3203F083F85246434602F0D0FBD4
:1030400032463B4602F0A6F9DDE9062302F0C8FB52
:10305000DDE9002302F0C4FB08B02A462346BDE8A0
:10306000F04D02F0CBBA0B465A463046394602F0D4
:1030700091F9084A084B01F0E3FE4246534602F03C
:1030800089F908B02A462346BDE8F04D01F0D8BEC4
:1030900056370000495555555555C5BF00221346B2
:1030A0001046014901F088BF0000F03F012203F003
:1030B00046B801F0C5BE002213461046114601F085
:1030C0007BBF40F2013200204FF0E04103F037B8FF
:1030D000024A0020110703F032B8000001FDFFFF93
:1030E00002688A4201D2521C026070470A78032AA1
:1030F00001D300220A70D2B2805C521C0A70704761
:1031000030B5084D064C2B8804EB031404F1180C61
:103110008CE80700012084F825005B1C2B8030BD63
:10312000D4570020A400002070B50020164C0246A1
:1031300001464FF07C5520612846FFF7E1FF002251
:1031400029461046FFF7DCFF00224FF07F5511465D
:103150002846FFF7D5FF002229461046FFF7D0FF8B
:103160000A4D002211462846FFF7CAFF00222946D1
:103170001046FFF7C5FF00F039FA206004480088C8
:10318000401C606170BD0000D4570020000040402A
:10319000A40000202DE9F0410446022000F02AFAA4
:1031A00000287AD004F5405595F8400F002874D1D6
:1031B00043F6847095F8411F221804F57C500829C5
:1031C00061D2DFE801F060041360602030292169DA
:1031D00004EB0111C03144300EC980E80E003048C4
:1031E0000021016041608160C1604CE0216904EB15
:1031F000011191F8CC1001EB410104EB8101183170
:1032000050300EC90CE043F65D7021181046FFF7F0
:103210006DFF85F85C0F36E000F1440178300EC98F
:1032200080E80E002FE043F65F7021181046FFF78C
:103230005DFF85F85E0FE06802F0BCFB00F014F95A
:1032400001F0CCFD0746E06802F0B4FB01F02CFA77
:1032500001F0C4FD064695F85E0F801E02F060FD89
:103260008046394602F0BCFD0E4F394602F0B8FDEB
:10327000C5F8700F4046314602F0B2FD394602F003
:10328000AFFDC5F8740F012085F8400F04F1100060
:103290006169BDE8F041FFF723BFBDE8F0810000A0
:1032A000485700209A99193E70B586B006460C46DC
:1032B000684600F04BF9054603A800F05BF9022DC3
:1032C00005D0032D05D09DE8070086E8070006B06D
:1032D00070BD0399206802F08BFE2060049960683D
:1032E00002F086FE6060F2E72DE9F04107461D46D8
:1032F0000E461446104602F07BFE294602F086FB7D
:10330000DFF85080414602F0F5FB38602146304638
:1033100002F07CFB294602F079FB414602F0EAFB11
:1033200078602146304602F063FE294602F06EFBCB
:10333000414602F0DFFBB86086F00040214602F013
:1033400057FE294602F062FB414602F0D3FBF860CB
:10335000BDE8F0812DB21D3D70B50446002635460E
:1033600054F8A00F02F026FB00F07EF8206802F06F
:1033700021FB01F099F90020E561C4E9086070BD06
:103380002DE9F0470446D0F8A420D0F89810083072
:103390000546FEF7ABFE8146D4F8A82054F89C1FE2
:1033A0002846FEF7A3FE8046606802F003FB00F0AB
:1033B0005BF801F013FD0746606802F0FBFA01F0CC
:1033C00073F901F00BFD0546414602F009FD064682
:1033D0004946384602F004FD314602F017FB064626
:1033E0004946284602F0FCFC05464146384602F0B4
:1033F000F7FC294602F0FCFD54F8102F054654F85E
:103400000C1CA4F15C00AC3CFEF770FED4F8341147
:10341000074681F000423046BC3400F005F92060D8
:10342000A16F284681F0004200F0FEF86060A16FB5
:10343000384681F0004200F0F7F8A060BDE8F08760
:1034400030B5084C002200BFC2EB021350F82250E6
:1034500004EB0313521C43F8E85F042A1971F3DBF1
:1034600030BD00002014002000B5244B21F00042A4
:1034700087B09A42DCBF0022134629DD204B9A42D6
:1034800008D140B94FF00100FCF7D4FFFFF713FE5D
:1034900007B000BD03DBFFF709FE07B000BD02AABD
:1034A000FFF7EEFA10F0030104BF0DF1080C9CE8E1
:1034B0000F000DD0012001290ED0022914D00DF1EA
:1034C000080C00909CE80F00FFF772FD07B000BDEC
:1034D000FFF79AFC07B000BD0DF1080C00909CE8C6
:1034E0000F00FFF765FD05E00DF1080C9CE80F00EB
:1034F000FFF78AFC07B081F0004100BDFB21E93FE6
:103500000000F07F10B558B1084C491E0BD310F8DD
:10351000013B5340DBB234F8133083EA1222F4E764
:103520004FF6FF7010BD104610BD0000CC630008C0
:1035300010B5054C04E000BF10F8013B5340E25CBD
:10354000491EF9D2104610BDCC62000830B50849BA
:10355000024691F8873091F8840001EB0313583349
:10356000783138CB81E8380082E8380030BD00007F
:10357000D4570020064AD2E91812C0E900120548C3
:103580000021C0F8601FC0F8641F90F8410F704719
:10359000E0560020E047002010B5054A00215418ED
:1035A000435C491C84F885300329F8DB10BD00001A
:1035B000D457002070B50446006810F0FF4F10D0BB
:1035C000616811F0FF4F0CD0064E314602F092FABE
:1035D000054D3146C5F83801606802F08BFAC5F830
:1035E000400170BD0000C842A8110020004870478B
:1035F000A811002002000948407908D00749012A93
:10360000897905D0022A05D0032A05D00020704709
:10361000084670470840704708437047A8110020CB
:10362000004870478C5F002070B50D461646044672
:10363000114602F0A1FB00D234462946204602F092
:103640009BFC00D22C46204670BDFDF7D3FCFEF754
:10365000B7FEFEF7BBFBFEF76FFBFEF713FCFEF7B2
:1036600065FCFEF77FFCFEF729FCFEF743FC00F04B
:10367000DFFF00F0F3FFFEF70FFDFFF755FDFEF74C
:1036800071FB00F093F8FEE701460020842900D08A
:10369000C81C7047094910B54878897818B1352990
:1036A00003D0362905D0002010BD00F05BF80220C1
:1036B00010BD00F005F8012010BD0000EC12002044
:1036C00070B5124C0546A088A17940BA000440EAC2
:1036D0000120E179084302F03BFB012102F05DFD8E
:1036E0000B4902F07DFB6FF00F0102F056FD094916
:1036F000C5EB051201EB021141F8140CE278002A27
:1037000003D080F0004041F8140C70BDEC12002092
:10371000DB0F494020140020F8B50C46074616463A
:103720000E49204602F0E6F90D4902F059FB20F05F
:10373000004002F0D5FA85B214F1FF4F01D2002407
:1037400000E00124304602F0CBFAC3B20020009022
:103750002A4621463846FDF7ABF8F8BDDB0FC940D5
:103760000000704270B50D4C0546A08840BA02F0CA
:10377000EFFA012102F011FD094902F031FB09497C
:1037800002F0B8F9084AE378C5EB051102EB011124
:103790000BB180F0004041F8180C70BDEC12002015
:1037A000DB0F4940000070422014002010B501F0EA
:1037B000DFF8002010BD7FB50D4604464169B0F921
:1037C000080081B1A16971B1FFF75EFFD4E905126C
:1037D0008DE80700D4E900102B46226901F0FDF9BD
:1037E000039004B070BDFFF74FFF03A9CDE90001BE
:1037F000208A2B4682B2D4E9001001F0C1F90128D9
:1038000001D00020EDE70398EBE700002DE9F04D33
:103810001D460C4698B0174621F0004123F00043A6
:10382000002814BF4FF0010C4FF0000C0CEB440CBF
:10383000FE4A0CEB02064FEA620C66452BD33E00B3
:1038400018BF012606EB45061644F94A964222D3D4
:10385000F84A53EA070C02D0944205D148B918B08F
:1038600000201146BDE8F08D002808BF4FF0000C85
:1038700001D04FF0010C0CEB440212F5001F0AD8E6
:10388000002F14BF4FF0010C4FF0000C0CEB450261
:1038900012F5001F07D918B03A462B462146BDE85D
:1038A000F04DFFF706BC0022DFF88CA3002CB8BF58
:1038B000534526DADFF884C36345A8BF022220DA25
:1038C000DFF870C39C451CDCDFF874C30CEB235C91
:1038D000BCF1140F08DDCCF1340627FA06FC0CFA13
:1038E00006F6BE420DD108E05FB9CCF1140623FA0A
:1038F00006FC0CFA06F69E4203D10CF00102C2F15E
:10390000020251EA000C19D1002D17DA002C18BF61
:10391000022A01D0012A07D00220FCF78BFD18B043
:10392000BDE8F04DFFF7BABB0220FCF783FDFFF7BF
:10393000B5FB18B081F00041BDE8F08DB7F1000C87
:103940006CD1534525D104F1804212F5801201BF9C
:1039500000280020B74918B008BFBDE8F08DB54871
:10396000884207DC002DA1BF6046294618B0BDE89B
:10397000F08D07E0281E05DA80F0004118B060469F
:10398000BDE8F08DAF497944D1E9000118B0BDE838
:10399000F08DDFF8A0C2634525D1002D1FDA19B1E3
:1039A000514512D1D8B909E0002840F0EC82A24A72
:1039B000214618B062F31E01BDE8F08D00202146BB
:1039C00018B060F31E01BDE8F08D08DA18B0234688
:1039D000BDE8F04D02460020614601F0EDBA18B096
:1039E0002146BDE8F08D514518DAB5F1804F0DD074
:1039F000A5F1005CBCF1FF5C10D1B4F1000C0DDB53
:103A000018B06146BDE8F04D00F09EBE234618B0E8
:103A10000246BDE8F04D194601F0BCBC060024F09A
:103A2000004C3BD1D9B1514533D1002C06DD002DDE
:103A3000A1BF0020514618B0BDE8F08D002C01DD7B
:103A4000002D1BDB002C13DA002D11DB012A4FF0B7
:103A5000000014BF78497C4918B0BDE8F08D022AF7
:103A600018BF002C0AD0012A08D1002C06DA0AE07F
:103A7000002CB8BF002D11DA012A04D0002018B0A4
:103A80000146BDE8F08D18B000204FF00041BDE8C0
:103A9000F08DA1F14050B0F17F601AD0012000EB11
:103AA000E47050EA020421D0624C521E4FF0000B29
:103AB000104304BF4FF0000B644C654883427CDD2B
:103AC000644A654893421FDD884217DB002D25DBE1
:103AD00037E0002C00DA4AB1022A0CBF01204FF077
:103AE000FF3018B0BDE8F04D01F0EDBB0120FCF750
:103AF000A1FC18B0BDE8F04DFFF7DDBA4D4A8A428F
:103B000002DC002D0ADC1CE0814202DA002D18DA0A
:103B100004E0484B994220DD002D12DD0220FCF725
:103B200089FCFFF7CEFA05460E460022534658465A
:103B3000214601F02FFC18B066F31E012846BDE8AF
:103B4000F08D0220FCF776FCFFF7C2FA0A46214608
:103B500018B062F31E01BDE8F08D002230466146C8
:103B600001F03EFE80460E466FF0010202F0E7FAD9
:103B70004FF05532394B01F041FD4246334601F0DA
:103B800009FC0022364B01F039FD8246424633469D
:103B900004911046194601F0FDFB5246049B01F0CA
:103BA000F9FB8A4600904FF0C0422E4B404631460A
:103BB00001F0F0FB2C4A2B4B00E027E0CDE9060199
:103BC0005146009801F0E6FB82460191274A284BB6
:103BD0004046314601F0DEFB5246019B01F000FEFB
:103BE00082460B4602460591DDE9060101F028F9FF
:103BF000DDE9062300268846304601F0F1FD5246F5
:103C0000059B01F0FBFC024600F07EB90020B1F5F7
:103C1000801F07DA35223046614602F090FA0646E8
:103C20006FF0340000EB215024E00000FFFF1F0084
:103C3000FFFF0F000000F03F0000F07F0000404356
:103C400001FCFFFFFE2C00000000F0FF0000F0BFB1
:103C50000000E0410000F043FFFFEF3F5555D53F26
:103C60000000E03F4715F73FFE822B6544DF5DF81B
:103C70000BAE543EA0F2FF300190C1F3130040F0B0
:103C80007F6141F040510291FE498842D8BF002037
:103C900004DDFD498142C8BF012001DD0D9008E02F
:103CA00000200D900198401C01900298A0F5801012
:103CB00002900299F54878440B910D9900EBC100F0
:103CC000D0E900230F9330460A920B9901F088FD4A
:103CD000CDE90601DDE90A2130460F9B01F0B0F87D
:103CE00002460B460020EA4901F066F905910246BA
:103CF0000B460090DDE9060101F04CFB1490E5480D
:103D00008A464FF0000878440299006812904FF0FC
:103D1000005040EA61010D980F9B01EB804000F5D7
:103D2000002109910A9A129801F05AFD32460B9B24
:103D300001F064FC4246534601F02CFB064602911A
:103D400040465146099B129A01F024FBDDE9062307
:103D500001F054FC3246029B01F042FD059B009AA3
:103D600001F018FB0091149A04905346104619462E
:103D700001F010FB06460246C7480B460291062199
:103D80007844FFF7BFF8CDE90510029B3246104694
:103D9000194601F0FFFADDE9053201F0FBFA059161
:103DA0000646534640461946149A01F049F8009BCE
:103DB000049A01F0EFFA3246059B01F041F8CDE993
:103DC0000510424653461046194601F0E3FA002218
:103DD000B24B02910A9001F033F8DDE9053201F0AF
:103DE0002FF80E464246AD4B404601F0F9FC029BCF
:103DF0000A9A01F0F5FCDDE9053201F0FFFB4246CD
:103E000002910A9033461046514601F0C3FACDE9BB
:103E100006015346149A02990A9801F0BBFA8A46A1
:103E20000290334642460099049801F0B3FA534693
:103E3000029A01F005F882460B4602460591DDE93B
:103E4000060100F0FDFFDDE9062300208846064656
:103E500001F0C6FC5246059B01F0D0FB8246099159
:103E60004FF060428E4B3046414601F093FA049089
:103E700006918C4A8A4B5046099901F08BFA82468A
:103E80000291894A894B3046414601F083FA5246F5
:103E9000029B00F0D5FF864B7B440D9A03EBC203D7
:103EA000D3E9002300F0CCFF0E900791019801F0B8
:103EB0000AFA0591DDE9061382460E9A049800F08D
:103EC000BFFF7C4A7A440D9B02EBC303D3E9002376
:103ED0000093029200F0B4FF5246059B00F0B0FF41
:103EE0000026884652463046059B01F079FC009B2F
:103EF000029A01F075FC069B049A01F071FC079B85
:103F00000E9A01F07BFB024600200B4602903846D9
:103F1000294601F03FFA824601912B463846194660
:103F2000029A01F05DFC3246434601F033FA5246F4
:103F3000019B00F085FF07468A46324643462946E4
:103F4000029801F027FA05460E463A46534600F01D
:103F500077FF594A8846914221DBA8EB020353EAD6
:103F6000000210D12A46334601F03AFCCDE90401A3
:103F7000524A534B3846514600F062FFDDE90423B4
:103F800001F006FB21D20220FCF754FAFFF799F862
:103F90000A46214618B062F31E01BDE8F08D494B78
:103FA00028F000429A4210D3474A08EB020353EA32
:103FB00000027FF4C6AD2A46334601F011FC3A46B2
:103FC000534601F0E5FA7FF6BCAD0022019228F0DD
:103FD00000403E493E4A01EB2051824223DA481C10
:103FE0004FF4801121FA00F040443A4AC0F30A51DC
:103FF0007A44394BA1F2FF31CB4020EA0303C0F3EE
:10400000130040F48010C1F11401C84012680190FF
:10401000B8F1000FBCBF404201902846314601F084
:10402000DFFB05460E462A4633463846514600F029
:1040300007FF4FF000084246284B4046059101F02B
:10404000A9F9CDE90601264A264B4046059901F01B
:10405000A1F9009102902A4633464046059901F0A5
:10406000BFFB3A46534601F0C9FA1F4A1F4B01F005
:1040700091F9009B029A00F0E3FE0746884602464B
:104080000B4635E08E9803007AB60B001629000027
:104090000000F03F7E2900007C280000000008405E
:1040A00009C7EE3FFD033ADCF5015B14E02F3EBE8D
:1040B000542700001827000000009040FE822B6566
:1040C0004715973C00CC904000346F3F01FCFFFF48
:1040D0000000E03F94260000FFFF0F00432EE63F64
:1040E000396CA80C615C20BEEF39FAFE422EE63F27
:1040F000DDE9060100F0A4FEDDE9062305460E46D3
:1041000001F06EFB3A46434601F078FA0F462A4624
:10411000334600901046194601F03CF982460246AB
:104120002E4888460B4605217844FEF7EBFE5246A2
:10413000434601F02FF92A46334601F05FFA8046E4
:104140008A463B4628463146009A01F023F93B4611
:10415000009A00F075FE0691009000224FF0804317
:104160004046514601F03CFB0F460C9042465346F8
:104170002846314601F00EF93B460C9A00F01CFF30
:10418000069B009A01F02CFB2A46334601F028FBDF
:104190000022134B01F032FA054601980E4601EB5E
:1041A00000510815002810DC28463146019A01F01C
:1041B000C6FFFEF740FC042808BFFEF789FF28462B
:1041C0003146019A01F0BBFF05460B4618B02A465E
:1041D00058462146BDE8F04D01F0DCB8042500004A
:1041E0000000F03F2DE9F041184C0F460546E66807
:1041F0002068001D00F0CEFA38B9206890F82C1025
:1042000001208840216981432161681C07D137B1B1
:104210002168BDE8F0410E48091D00F0FFBA206892
:104220003544B5424560216805D2A06BBDE8F04138
:10423000091D00F0DBBA606B091D00F0D7FAA06A17
:10424000854200D2A562BDE8F08100002000002078
:10425000940500202DE9F041054600F0EBFA2E4CC4
:10426000A068401CA06020682C4F10B1606940B36A
:104270002DE02560A068012829D1002606EB8600E4
:1042800007EB800000F0A4FA761C072EF6D3234833
:104290008C3000F09DFA2148A03000F099FA1F48B8
:1042A000B43000F095FA1D48C83000F091FA1B4870
:1042B000DC3000F08DFA19488C3060631430A06354
:1042C00005E02068E96AC06A884200D82560606A13
:1042D000401C6062E96A0120226988401043206125
:1042E00001EB810007EB8000291D00F097FA00F038
:1042F000C1FA606900280CD02068E96AC06A884267
:1043000007D207494FF080500860BFF34F8FBFF3CB
:104310006F8FBDE8F081000020000020B80400206D
:1043200004ED00E010B5044690F8510058B10128A2
:104330000CD002280FD0502080F31188BFF34F8F8C
:10434000BFF36F8FFEE7206B00F0A8FA2046BDE8B0
:10435000104000F0A3BA10BD10484FF4406142076E
:1043600006D0C01D0D4920F00700411AC1F540617B
:104370000B4A00230144C2E900030839183A21F02E
:10438000070111604B600B600B1AC0E900139360CA
:104390004FF000405360506170470000A8050020B6
:1043A00074000020144E154CA6F1C8074FF0805839
:1043B000DFF84C9012E000BF00F03CFAF068C568EE
:1043C000281D00F0E7F9A068401EA0606068401E4C
:1043D000606000F04FFA2846FFF7A4FF60680028ED
:1043E000EAD138680128F9D9C9F80080BFF34F8FA6
:1043F000BFF36F8FF2E7000080050020200000204F
:1044000004ED00E02DE9F0479A46DDE90984814694
:104410006FF00303206B03EB82021044089E20F030
:104420000707780707D0502080F31188BFF34F8F1C
:10443000BFF36F8FFEE7002561B1002023180A5CEF
:1044400083F834200A5C12B1401C1028F6D384F89B
:10445000435001E084F83450072E00D30626E6626C
:10446000C4E91165201D00F0BEF904F1180000F048
:10447000BAF92461C6F107006462A061E56484F8BA
:10448000505052464946384600F0C0F82060B8F116
:10449000000F01D0C8F80040BDE8F08730B51149E1
:1044A00000E011460A688242FBD34B685C188442E4
:1044B00003D1406818444860084643681C18944279
:1044C00009D1084C183C2468A24209D052681A4409
:1044D00042600A6812680260814200D0086030BD04
:1044E0000460F9E7740000200648416B096829B1AF
:1044F000416BC968C9684968816270474FF0FF31F4
:10450000FAE700002000002008484068401C4FF0F7
:10451000500080F3118804D0BFF34F8FBFF36F8F2B
:10452000FEE7BFF34F8FBFF36F8FFEE77C000020E5
:104530002DE9F0410546002700F050FA324E306870
:1045400008B9FFF709FF706905424ED1C5B30835B8
:1045500068070ED005F00700C0F1080005446807A1
:1045600007D0502080F31188BFF34F8FBFF36F8FB8
:10457000FEE72DB37068854237D8234818300146CE
:104580000C6801E020460C466168A94202D221680D
:104590000029F7D131688C4227D007682168016073
:1045A00060680837411B10290FD96019420708D0ED
:1045B000502080F31188BFF34F8FBFF36F8FFEE75A
:1045C00013E041606560FFF769FF61687068401A39
:1045D0007060B268904200D2B06070690143002000
:1045E000C4E90001F068401CF06000F095FB78071A
:1045F00007D0502080F31188BFF34F8FBFF36F8F28
:10460000FEE73846BDE8F0815C00002010B5031FCE
:104610004FF080741C601B1F21F001011960191FED
:10462000024B0B60143940380A6010BD0945000880
:104630000749002008704870887006497B200122D5
:1046400021F85C0F488002490348FDF7B5BA000025
:10465000A00000206C5700209C0300200F49002080
:1046600030220870487088700D4874218171C271C1
:104670002E220272417278228272C1723D21017330
:10468000222141732B2242744175FF218175C1752E
:104690000176012201490348FDF78EBA8C00002003
:1046A000ED1300205403002000B5254B21F00042FB
:1046B00087B09A4203DC0022134600922BE0214B84
:1046C0009A4208D140B94FF00100FBF7B3FEFEF764
:1046D000F2FC07B000BD03DBFEF7E8FC07B000BD4D
:1046E00002AAFEF7CDF910F003014FF001000DD042
:1046F000012914D002291AD00DF1080C9CE80F00F2
:10470000FEF782FB07B081F0004100BD0DF1080CFF
:1047100000909CE80F00FEF74BFC07B000BD0DF1C8
:10472000080C9CE80F00FEF76FFB07B000BD0DF111
:10473000080C00909CE80F00FEF73AFCE2E700004E
:10474000FB21E93F0000F07F2DE9F04106460F46CE
:1047500000F060FF041E0D4618BF0120284320F022
:104760000040C0F17F6000F1E040C00F0ED0301C6F
:1047700018BF0120384320F00040C0F17F6000F1F5
:10478000E040C00F04BF0120FBF754FE204629463D
:10479000BDE8F081D0E9013201699A60D0E90123D6
:1047A0005A604A68824201D182684A6000220261EE
:1047B0000868401E0860086870470000034B0360EB
:1047C00003F154000860802010607047B80000209A
:1047D00000F108014FF0FF32C0E90112C160016130
:1047E00000210160704700210161704730B50B68FE
:1047F0005A1C02D000F1080202E0026904E02246DD
:10480000546825689D42FAD953684B6099608A6064
:10481000516008610168491C016030BD42684A600E
:1048200093688B6093685960916008610168491CC6
:1048300001607047502080F31188BFF34F8FBFF3A2
:104840006F8F0A494868401C486001280CD108480D
:10485000006810F0FF0F07D0502080F31188BFF3DD
:104860004F8FBFF36F8FFEE7704700007C00002082
:1048700004ED00E00849486828B1401E486001D1B5
:1048800080F311887047502080F31188BFF34F8F59
:10489000BFF36F8FFEE700007C00002070B500289A
:1048A0002AD0164DA0F1080460686969084207D152
:1048B000502080F31188BFF34F8FBFF36F8FFEE757
:1048C00022683AB1502080F31188BFF34F8FBFF3B5
:1048D0006F8FFEE78843606000F080F86068696869
:1048E000084468602046FFF7D9FD2869401C28610C
:1048F000BDE8704000F010BA70BD00005C00002000
:104900004FF0E02000210161816105494FF47A7286
:104910000968B1FBF2F1491E41610721016170474D
:104920001C00002010B5020014D00F48006B38B1F5
:10493000502080F31188BFF34F8FBFF36F8FFEE7D6
:1049400000F04CF800211046FFF74CFC00F0E4F9B1
:10495000002807D105494FF080500860BFF34F8F02
:10496000BFF36F8F10BD00002000002004ED00E0B9
:1049700010B586B00024039405AA04A903A80494E2
:10498000FFF71CFFDDE903010094CDE901100023CE
:104990000EA11048059A00F020F90F490028C862BE
:1049A00011D0502080F31188BFF34F8FBFF36F8F6A
:1049B0004FF0FF30886201204861CC6006B0BDE84E
:1049C000104000F073B806B010BD000049444C45DB
:1049D00000000000A5430008200000200248016BF1
:1049E000491C016370470000200000201448016B3F
:1049F00011B10121C16170470021C1610169B1FAA2
:104A000081F1C1F11F0101EB81020E4951F8223001
:104A10006BB101EB820101F108034A6852684A60F8
:104A20009A4201D152684A60D168016070475020B3
:104A300080F31188BFF34F8FBFF36F8FFEE7000045
:104A400020000020B804002030B50C46050014D02A
:104A5000022C12D90A48A11E02882846FEF752FDF0
:104A60002919C2B211F8023C9A4206D111F8011C70
:104A7000B1EB102F01D1012030BD002030BD00006E
:104A8000B400002030B50C4605000CD0022C0AD929
:104A9000FF22611EFEF74CFD291911F8011C81420D
:104AA00001D1012030BD002030BD00001CB52649D9
:104AB00008780190FF20087008788DF800009DF8B4
:104AC00000009DF8002000F0F000904207D0502038
:104AD00080F31188BFF34F8FBFF36F8FFEE79DF810
:104AE00000001A4C00F0500020700720A06005E084
:104AF0009DF8002052008DF80020401E9DF80020F7
:104B00001206F5D4A060032807D0502080F3118846
:104B1000BFF34F8FBFF36F8FFEE74FF44070A0607D
:104B2000019808700A48016841F470010160016849
:104B300041F070410160FFF7E3FE00206060FBF789
:104B400057FB00201CBD000000E400E07C000020BA
:104B500020ED00E010B5502080F31188BFF34F8F97
:104B6000BFF36F8F00F072F818B104494FF0805016
:104B70000860002080F3118810BD000004ED00E003
:104B80002DE9FF5F8346DDE90E87994616468A4682
:104B90009000FFF7CDFC05001CD05420FFF7C8FCA7
:104BA000040014D00020256384F85100CDE90240B0
:104BB000CDE900874B46324651465846FFF722FC66
:104BC0002046FFF747FB012004B0BDE8F09F2846D0
:104BD000FFF764FE4FF0FF30F6E7F0B585B0DDE992
:104BE0000B640A9DA6B1DCB1542700972663022608
:104BF00084F85160002604AFCDE90246CDE90057A4
:104C0000FFF700FC2046FFF725FB049805B0F0BD38
:104C1000502080F31188BFF34F8FBFF36F8FFEE7F3
:104C2000502080F31188BFF34F8FBFF36F8FFEE7E3
:104C30000548416919B1006B18B100207047012087
:104C40007047022070470000200000202DE9F0414D
:104C50002F4C0026206B28B1A069401CA061304673
:104C6000BDE8F081E5686D1CE56013D1606B0068FC
:104C700038B1502080F31188BFF34F8FBFF36F8F8F
:104C8000FEE7606BA16B6163A063206A401C206239
:104C9000FFF72AFCA06ADFF87C80854209D3606BAD
:104CA0000068A0B1606BC068C7687868854211D29F
:104CB000A0622068C06A00EB800158F8210001283A
:104CC00000D90126E0690028C9D00126C7E74FF0C6
:104CD000FF30EDE7381DFFF75DFDB86A18B107F149
:104CE0001800FFF757FDF96A012022698840104338
:104CF000206101EB810108EB8100391DFFF78EFD7A
:104D0000F86A2168C96A8842C9D30126C7E700004A
:104D100020000020B80400202DE9F0472C4D00248D
:104D20002746286B38B1FFF785FD286B401E2863A6
:104D3000286B40B146E0502080F31188BFF34F8FBD
:104D4000BFF36F8FFEE7A968224E0120D1B3A6F111
:104D5000B40980463068E8B1F068C46804F118000E
:104D6000FFF718FD201DFFF715FDE06A2A6908FA14
:104D700000F11143296100EB800109EB8100211D45
:104D8000FFF74CFDE06A2968C96A8842E2D3C5F89A
:104D90001C80DFE70CB1FFF7A7FBAC6944B14646C6
:104DA000FFF754FF00B1EE61641EF9D10020A86145
:104DB000E86938B10849012738070860BFF34F8F09
:104DC000BFF36F8FFFF756FD3846BDE8F087000050
:104DD000200000206C05002004ED00E021F00042DE
:104DE000A2F16052B2F5801F01F0004328BFD2F15A
:104DF0007F6C0BD95FEA001C43EAC20242EB5070A1
:104E000018BF704728BF20F001007047B2F5801F1F
:104E1000BCBF184670474FEA410C1CF5001F02D278
:104E2000084601F0A4B870B500F05EFB00000089F0
:104E3000FFF7F6BF4FF00040A0F58000704700007C
:104E400010B591EA030F48BF83F0004300F1D0840E
:104E5000841A71EB030C05D2121943EB0C03001BEF
:104E600061EB0C01DFF824E14FEA1154A4EB135C71
:104E70001EEA430F18BF9EEA445F73D023EA0E0375
:104E8000DCF1200E21EA045143F4801332D322FADC
:104E90000CFE10EB0E0023FA0CFE41EB0E01CCF1E0
:104EA000200E03FA0EFE10EB0E0051F10001B1F5D9
:104EB000801FCCF1200E32D201EB045112FA0EF217
:104EC000BDE8104058BF7047401C38BF5FEA42023F
:104ED00018BF7047002814BF20F0010041F1000105
:104EE0004FEA410313F5001F38BF7047A1F1C041DD
:104EF00000F048BB012A43EB0302ACF1200CDCF1CB
:104F00001F0E32BF4FF0000E23FA0CF310EB03001C
:104F100041EB0451B4EB115FD0D0A1EB045101F58A
:104F2000801149085FEA300001EB04510ED350F1C3
:104F3000000038BF12FA0EFE08D1BDE81040C9E7E4
:104F4000401C38BF5FEA4202CAD1C3E7BDE8104047
:104F50004FEA410313F5001F38BF7047A1F1C0416C
:104F600000F010BB9EEA445F08D011EA5E0FBDE876
:104F7000104004BF01F0004100207047BDE8104020
:104F800070B500F0B1FA00BF64FBBE3E0000E0FF68
:104F900002494FF0000001F0A0B800BF0000F87F08
:104FA000491058BFC1F140415B1058BFC3F14043A5
:104FB0008B42EFF3008070472DE9C04130B4DFF839
:104FC000A0C23CEA111418BF3CEA131400F0EC80B4
:104FD00081EA03051CEA111444EAD57418BF1CEADF
:104FE000131500F0C780A4EB05044FF0004545EA17
:104FF000C12145EAC32341EA505143EA525304F127
:105000007F74994204F500344FEAC0204FEAC2226F
:1050100008BF904200F09C804FEA13650FF24016E3
:10502000765D4FEA134506FB05F7C7F1807706FB6F
:1050300007F74FEAD737A7FB03687642C8F58038F1
:10504000A7FB06CE38BFA8F1010807FB08E64FF022
:10505000000EA6FB028CE6FB03CEDCF1000CCEF1C9
:10506000004E38BFAEF1010EA6FB0C584FF0000702
:105070004FF00005E6FB0E87A1FB08C6A0FB07CE9C
:1050800016EB0E0645F10005E1FB076515F1E04E54
:105090007EBFA4F580345FEA46066D4116F18007B5
:1050A00045F100054FEA17274FEA066647EA05670C
:1050B000A6F1DE46B6F1805F4FEA15251FD93846C6
:1050C00024F0010C05EBC471BCF1FE6F01EB0C1177
:1050D00002D8F0BCBDE8008124425CBF01F5801E0F
:1050E0009EEAC47F02D4F0BCBDE80081244238D4DB
:1050F000F0BCA1F1C041BDE8004100F043BA4FEA65
:10510000D22242EA43524FEAD323A7FB02864FEA58
:10511000D02040EA415007FB03661EEA0E0F4FEA1B
:10512000D12105FB026658BFA6EB0056B6EB005630
:105130004FEA520E4EEAC37E18EB0E0E56EB530E9C
:10514000BDD518EB02085E417F1C55F10005B6E79E
:105150004FF480154FF000074FF000064FF00008A5
:10516000ADE7F0BC4FF0000001F1C04101F000419B
:10517000BDE8008111EA0C1F0CEA131500D00CE009
:1051800013EA0C1F00F025804FF00000F0BC81EA0C
:10519000030101F00041BDE80081F0BCBDE8004121
:1051A00081EA030100F0EEB9F0BCBDE8004170B542
:1051B00000F09AF9097EFC3E00F007B881EA03018D
:1051C0004FF0000001F00041704781EA030100F058
:1051D000D9B9F0BCBDE800414FF00000214970474B
:1051E000FFFDFBF9F7F5F4F2F0EEEDEBE9E8E6E4AC
:1051F000E3E1E0DEDDDBDAD8D7D5D4D3D1D0CFCD33
:10520000CCCBCAC8C7C6C5C4C2C1C0BFBEBDBCBB6B
:10521000BAB9B8B7B6B5B4B3B2B1B0AFAEADACAB66
:10522000AAA9A8A8A7A6A5A4A3A3A2A1A09F9F9E40
:105230009D9C9C9B9A9999989797969595949393F2
:10524000929191908F8F8E8E8D8C8C8B8B8A898989
:10525000888887878685858484838382828181800C
:105260000000FF070000F87F4FEA41034FEA535365
:10527000A3F58063D3F11E03C8BFD3F1210C0CDD6D
:105280004FF0004242EAC12242EA505232FA03FC95
:105290008CEAE17CACEBE1707047102BC4BF0020BE
:1052A000704703F5787CBCF1FF3F04D06FF00042FB
:1052B00082EA2100704770B500F016F94992248007
:1052C00000207047F2E710F0004248BF4042B0FAB9
:1052D00080F310FA03F10AD0C3F11D0303F58063D4
:1052E0004FEA415002EB035202EBD12170474FF0DD
:1052F00000007047B0FA80F310FA03F10AD0C3F14E
:105300001D0303F580634FEA41504FEA035202EB5D
:10531000D12170474FF000007047000051EA030CA4
:1053200017D41CF5801F58BFBCF5801F00F1068004
:10533000994218BF704708BF9042704707D711F5D0
:10534000801F58BF13F5801F19D4994270478942B6
:1053500070471CF5801F08D5BCF5801FF7D58B4220
:1053600018BF704708BF824270474FF4001C1CEB07
:10537000410F38BF1CEB430F01D28B42704770B511
:1053800000F0B2F8922449004FF000514FF08053E2
:10539000FFF706BEDFF848C170B51CEA111E1EBF3C
:1053A0001CEA13159EEA0C0F95EA0C0F00F06F80B3
:1053B00081EA030423EA4C134EEAD47E21EA4C111D
:1053C00041F4801143F48013AE44A1FB024CA0FBD6
:1053D0000365AEF17F7E361955EB0C05A1FB034C3E
:1053E0004CF10003A0FB021C16EB0C06654153F1C7
:1053F0000003094218BF46F0010613F4007F0BD1E9
:105400004FEA03314FEA0530340341EA155140EACF
:1054100016506FF003020AE04FEAC3214FEAC5209D
:10542000F40241EA555140EA56506FF0020202EB95
:105430002E4201EB025585EACE710AD05FEA440C98
:1054400018BF24F0004450F1000041F1000120EAAF
:10545000D47040F2FE7C624500D270BDA84214BFF9
:105460004FF080444FF04044002E08BF0024BEF1AE
:10547000806FA8BFA1F1C041BDE8704080F282807A
:105480004FF0000001F1C04101F0004170479EEA79
:105490000C0F0CEA131518BF95EA0C0F06D04FF04D
:1054A000000081EA030E0EF0004170BD00F01CF810
:1054B0008900013E00F007B800F009B84FEA430C3C
:1054C0005FEA5C5C08D081EA030100F05BB84FEA58
:1054D000410C5FEA5C5CF6D14FF000000149704777
:1054E0000000FF070000F87F0EF1020E2EF0030E01
:1054F0005EF8046B364205D4012A43EB030515F52B
:10550000001F12D8012841EB010C1CF5001F0CD81C
:105510000ED14FEAD17C15F5001F0CEB4C0C0CF1B1
:10552000020C08BF4CEBD37C04E04FF0080C01E008
:105530004FEAD37C0CEB4C0526FA05F606F007067D
:10554000B6F1040C06D20EEB860CBDE870404CF0B0
:10555000010C6047DFE80CF0090B02024FF000413C
:105560004FF00000A1F5002170BD1946104601283A
:1055700051EB010418BFD4F5001484BF002001F0E2
:10558000004170BD0808A0F500114FEA31017047D5
:1055900053EA010C17D41CF5801F58BFBCF5801FBF
:1055A00000F106808B4218BF704708BF82427047E7
:1055B00007D713F5801F58BF11F5801F19D48B42F0
:1055C00070479B4270471CF5801F08D5BCF5801FB3
:1055D000F7D5994218BF704708BF904270474FF403
:1055E000001C1CEB430F38BF1CEB410F01D299424A
:1055F00070470FB40CBC03BCFFF7C1BE91EA030FA8
:1056000010B581F000413FF523AC83F0004300F07A
:10561000EFB800002DE9F04101F5801CBCF5001F3A
:10562000C0F2C3804FEA115C21EA0C510CF1FD0C71
:1056300041F480115FEA5C0C0CF5C07C01D34000A2
:1056400049413DA4890241EA905187028E0E0A0C1D
:10565000A45D04FB04F602FB06F6C6F14046A4FB7B
:105660000662F60D46EA422606FB06F4A4FB012379
:105670005242C3F1404338BF5B1EA6FB02420024E6
:10568000E6FB0324D20B42EA4446A6FB0623A1FB19
:1056900002E2A3FB07E4A4184FF0000252F100025B
:1056A000E3FB01426442C2F1404E38BFAEF1010E4D
:1056B000A6FB04234FF00002E6FB0E32A2FB0346DA
:1056C0004FF00004B61954F10004E2FB0264A1FBA0
:1056D00006E6A4FB07E816EB08064FF0000858F1B1
:1056E0000008E4FB01687642C8F1405838BFA8F1D1
:1056F0000108A2FB06E4A3FB08E52D194FF0000406
:1057000054F10004E2FB0854A1FB05E6A7FB04E802
:1057100018EB06084FF0000656F10006E1FB048680
:1057200018F1200556F10006A809A8F11B08B109D7
:1057300008F03F08B8F10A0F40EA86601CD901EB77
:105740000C51BDE8F08100BFFCF5EEE8E2DDD8D3F6
:10575000CFCBC7C3C0BDB9B6B4B1AEACA9A7A5A3E2
:10576000A19F9D9B9A9896959392908F8D8C8B89F3
:105770008887868584838281A0FB006800FB01F214
:1057800008EB4208B8EB872807D5341858EB01041A
:10579000D5D5401C51F10001D1E7341A78EB010452
:1057A000CDD4401E71F10001C9E75FEA4C0C5FEAFD
:1057B0009C5C0DD105D34FF0000001F00041BDE825
:1057C000F081BDE8F04170B5FFF78EFE6DDBFFBEE6
:1057D000BDE8F0414FF00000004970470000F87F3D
:1057E00010B591EA030F48BF83F000433FF530AB9B
:1057F000841A71EB030C07D212198CF0004C43EBA6
:105800000C03001B61EB0C01DFF8A4E14FEA11541B
:10581000A4EB135C1EEA430F18BF9EEA445F00F03E
:10582000B08023EA6E03524221EA0451C3EB6E03B7
:1058300038BF5B1EDCF1200E25D322FA0CFE10EBE4
:105840000E0043FA0CFE41EB0E01CCF1200E03FAE0
:105850000EFE10EB0E0051F10001CCF1200E29D408
:1058600012FA0EF201EB0451BDE8104058BF704728
:10587000401C1CBFB2F1004F704700280CBF491CF0
:1058800020F00100704712EB020E43EB030218BF39
:105890004FF0010E4EEA4202ACF1200CDCF11E0E7C
:1058A00054D943FA0CFE10EB0E0051F1FF31CCF14C
:1058B0001E0ED5D50EF1010E12FA0EFE404141EB3F
:1058C000010101EB445C5FEA5C5C10D910EBDE7017
:1058D00001EB045138BFBEF1004FBDE8104018BFC6
:1058E000704700280CBF491C20F00100704730D2DF
:1058F0004FEAD42C11F5001124F400641BD0B1FA46
:1059000081F20B3AA41AA41ED2F12003914030FA7E
:1059100003F31943904001EBCC71002C01EB0451CF
:10592000BDE81040A8BF704701F1C0414FF0000032
:1059300001F000417047B0FA80F310FA03F100D192
:1059400010BDE41A173C4805C90AE4E701EB04510D
:1059500010BD491001EB0451BDE810404FEA300082
:1059600002E04FF0000170474A0008BF0042F8D043
:10597000B2F5001F28BF704701F000414FF0000052
:1059800070479EEA445F07D011EA5E0FBDE8104001
:1059900004BF002100207047BDE8104070B5FFF73C
:1059A000A3FD00BF40DFF63E83F000411046704784
:1059B0000000E0FF43004FEAD30C4FEA3C0C4340A9
:1059C0001FBF40070CF1605113F0FE4F70471CF0F1
:1059D000006F03D100200CF0004170470CF0004331
:1059E00043EA507010B540EACC0000F07AFA00BFEC
:1059F000000000924FEA0001FFF7C4BD4FF00041E4
:105A00004FF00000A1F500217047000090EA010F5F
:105A100048BF81F0004100F1F282421A3CBF801A77
:105A200089184FEAD0524FF07F4C1CEA410FA2EB8D
:105A3000D15318BF9CEA026F00F03B804FF0004C3E
:105A40004CEA00204CEA012121FA03FC10EB0C0C7B
:105A50001ED202F1FF325FEA1C2040EBC25038BF79
:105A600070471CF07F0F4FEA400C18BFBCF17F4F0E
:105A700038BF7047C3F12003994008BF20F00100F0
:105A8000BCF17F4F38BF7047A0F1C04000F06FBA43
:105A90004FEA3C00000A40EBC25028BF1CF0FF0F49
:105AA0004FEA400CE6D018BFBCF17F4F38BF7047BB
:105AB000EAE79CEA026F05D010EA5C0F08BF00F02D
:105AC0000040704710B500F00CFA00BF64FBBE3E0A
:105AD000014800F002BB00BF0000C07F401058BF6B
