:020000040800F2
:100000005809002089010008D72E00087521000832
:10001000D52E00089B0300083137000800000000BF
:10002000000000000000000000000000BD300008DB
:100030002304000800000000D92E0008BF3000088B
:10004000A3010008A3010008A3010008A301000800
:10005000A3010008A3010008A3010008A3010008F0
:10006000A3010008A3010008A3010008A3010008E0
:10007000A3010008A3010008A3010008ED03000884
:10008000A3010008A3010008A3010008A3010008C0
:10009000A3010008A3010008A3010008A3010008B0
:1000A00025310008493100083D3100083131000890
:1000B000A301000855310008A301000885210008AC
:1000C00079210008A3010008A3010008A30100088A
:1000D000A30100080537000825370008A301000820
:1000E000A3010008A3010008A301000800F002F822
:1000F00000F03AF80AA090E8000C82448344AAF188
:100100000107DA4501D100F02FF8AFF2090EBAE885
:100110000F0013F0010F18BFFB1A43F0010318473B
:10012000E854000008550000103A24BF78C878C190
:10013000FAD8520724BF30C830C144BF04680C60ED
:10014000704700000023002400250026103A28BF35
:1001500078C1FBD8520728BF30C148BF0B60704739
:100160001FB51FBD10B510BD00F0E2F81146FFF736
:10017000F7FF03F07DFF00F000F903B4FFF7F2FF93
:1001800003BC00F003F90000094880470948004714
:10019000FEE7FEE7FEE7FEE7FEE7FEE7FEE7FEE737
:1001A000FEE7FEE704480549054A064B7047000094
:1001B00021310008ED0000085803002058090020F4
:1001C0005805002058050020032A40F2308010F026
:1001D000030C00F0158011F8013BBCF1020F6244E2
:1001E00098BF11F801CB00F8013B38BF11F8013B73
:1001F000A2F1040298BF00F801CB38BF00F8013B20
:1002000011F0030300F05A80083AC0F0088051F85A
:10021000043B083A51F804CBA0E80810F5E7121D9A
:100220005CBF51F8043B40F8043BAFF30080D207B9
:1002300024BF11F8013B11F801CB48BF11F8012B85
:1002400024BF00F8013B00F801CB48BF00F8012BA8
:1002500070474FF0000200B5134694469646203989
:1002600022BFA0E80C50A0E80C50B1F12001BFF46F
:10027000F7AF090728BFA0E80C5048BF0CC05DF8D5
:1002800004EB890028BF40F8042B08BF704748BF23
:1002900020F8022B11F0804F18BF00F8012B704797
:1002A00070477047704710B500F03AF8006810BD0D
:1002B00010B5044600F034F8046010BD10B5203AC3
:1002C000C0F00B80B1E81850203AA0E81850B1E80F
:1002D0001850A0E81850BFF4F5AF5FEA027C24BFC5
:1002E000B1E81850A0E8185044BF18C918C0BDE8BC
:1002F00010405FEA827C24BF51F8043B40F8043B85
:1003000008BF7047D20728BF31F8023B48BF11F839
:10031000012B28BF20F8023B48BF00F8012B704793
:1003200000487047F402002000487047F4020020A3
:100330007546FFF7F9FFAE4605006946534620F0C3
:100340000700854618B020B5FFF72CFFBDE8204018
:100350004FF000064FF000074FF000084FF0000B81
:1003600021F00701AC46ACE8C009ACE8C009ACE834
:10037000C009ACE8C0098D46704710B50446AFF31C
:1003800000802046BDE81040FFF7F7BE0149182065
:10039000ABBEFEE7260002007047FEE770B50A4ECE
:1003A00002200A4D30700024E0B203F051FE05EB4C
:1003B0008401641C4860022CF6DB03F04FFE2860C9
:1003C0000348F06070BD0000200000207002002093
:1003D0006F12833A10B5044803F0F2FDBDE81040F7
:1003E000014803F0F9BC000070020020014800F051
:1003F00001B90000F401002030B590F8405001240C
:10040000AC40C56B6C60046863604368102B036884
:1004100003D099600068C26030BD9A600068C16016
:1004200030BD704710B50021044801F0FBF9BDE86C
:1004300010400021024801F0F5B900008C000020B6
:10044000D40000202DE9F05FDFF8A0804FF4806138
:10045000404600F0CFFA4FF0FF3707EB400041B2C3
:10046000234C244821710068456A4D430026A5604D
:100470004662284604F0ACFC6FF00909494604F0D6
:1004800060FEDFF874A0514604F0E0FB012104F0A7
:1004900058FEDFF868B0594604F0B2FC2060E0680E
:1004A0004FF400612844E060404600F0A3FA07EBF7
:1004B000400041B2124821750068456A4D43A5616C
:1004C0004662284604F084FC494604F03AFE514650
:1004D00004F0BCFB012104F034FE594604F090FC0A
:1004E0002061E0692844E061BDE8F09F0008014018
:1004F000380200208C0000206F12833ADB0F494045
:10050000D400002072B6FEE710B590F8211000224A
:10051000022905D00421816380F82020012010BD2C
:1005200001680B6823F00E030B6001680B6823F071
:1005300001030B6090F84030C46B012101FA03F312
:10054000636080F8211080F82020104610BD000064
:1005500010B590F821100024022903D004218163F2
:1005600001243DE001680A6822F00E020A60016879
:100570000A6822F001020A601A4A0168914201D118
:10058000012121E0174A1432914201D110211BE0D0
:10059000144A2832914201D1891515E0114A3C32A2
:1005A000914201D189140FE00E4A5032914202D19A
:1005B0004FF4803108E00B4A6432914202D14FF48B
:1005C000801101E04FF08071064A083A5160012124
:1005D00080F82110002180F82010416B01B188477C
:1005E000204610BD08000240806B704790F8210043
:1005F000704700002DE9F05FC16B0C6801680B6863
:10060000D0F840C0042202FA0CF2494DDFF824A1D0
:10061000494E4A4FDFF828B1DFF828E122422CD0BA
:100620005A072AD50A68920603D40A6822F00402FF
:100630000A600168A94201D1042219E0514501D1A3
:10064000402215E0B14202D14FF4806210E0B9427D
:1006500002D14FF480420BE0594502D14FF4802281
:1006600006E0714502D14FF4800201E04FF0806254
:100670002F4908394A60C16A3BE04FF0020808FA86
:100680000CF818EA040F4FF000094FF0010235D0C2
:100690005FEA837832D50B689B0605D40B6823F09C
:1006A0000A030B6080F821200168A94201D10222CF
:1006B00019E0514501D1202215E0B14202D14FF499
:1006C000007210E0B94202D14FF400520BE05945DC
:1006D00002D14FF4003206E0714502D14FF400120E
:1006E00001E04FF00072124908394A6080F820900A
:1006F000816A00291AD0BDE8F05F0847082505FA8D
:100700000CF5254212D01B0710D50B6823F00E0301
:100710000B6090F84010C36B02FA01F159608263DC
:1007200080F8212080F82090016BE2E7BDE8F09F7F
:10073000080002401C000240300002404400024019
:10074000580002406C00024030B528B308C8134975
:1007500014221944B1FBF2F18900C163104981638D
:10076000022141771A6843F6F0718A43D0E90014F8
:100770002143D0E902452C432143046921434469C4
:1007800021438469214311431960002141630122FF
:1007900042770177084630BD012030BDF8FFFDBF2C
:1007A0000000024070B5044690F8200000250128A2
:1007B0000CD0012084F8200094F821600020012E44
:1007C00006D084F820000225284670BD022070BDA6
:1007D000022684F82160A0632068066826F00106DE
:1007E00006602046FFF708FEE06A002820680168DE
:1007F00002D041F00E0106E021F004010160206802
:10080000016841F00A0101602068016841F00101BE
:100810000160D9E72DE9F84FDFF8B8910024A9F17C
:10082000040B23460F2709F1040AABF1040EC9E0BB
:100830000125A5402A40AA427DD1674ED1F804C0C7
:10084000ACEB0608B44532D014DCBCF1030F3AD04F
:1008500009DCBCF1000F2AD0BCF1010F1CD0BCF1A7
:10086000020F31D11DE0BCF1110F17D0BCF1120FF6
:100870002AD119E0B8F5881F19D006DCB8F5803FF9
:1008800015D0B8F5801F1FD111E0B8F5001F0ED0AC
:10089000B8F5041F18D10AE0CB6815E0CB681B1D22
:1008A00012E0CB6808330FE0CB680C330CE08B68A8
:1008B0002BB1012B4FF0080303D0456104E0042362
:1008C00002E0056100E00023FF2A01D8064601E0AE
:1008D00000F104064FEA840501D9A5F12005D6F8F8
:1008E000008007FA05FC28EA0C0803FA05F548EA37
:1008F0000508C6F800804D68ED0062D5374DAE6939
:1009000046F00106AE61AD6924F0030605F001056D
:100910000095334D06EB050CDCF80850A607360FA2
:1009200007FA06F825EA0805DFF8B880404503D144
:100930004FF0000817E044E0DFF8AC80404502D1FA
:100940004FF001080FE0DFF8A480404502D14FF0DE
:10095000020808E0DFF89880404502D14FF0030814
:1009600001E04FF0040808FA06F848EA0508CCF858
:1009700008804D68D9F80060ED024D4601D5164358
:1009800000E096432E604D68DAF80060AD025546EF
:1009900001D5164300E096432E604D68DBF80060F9
:1009A000AD035D4601D5164300E096432E604D68C9
:1009B000DEF80060ED03754601D5164300E096436E
:1009C0002E60641C0D682A46E5407FF431AFBDE817
:1009D000F88F0000080401400000111000100240D0
:1009E0000000014000080140000C014000100140DF
:1009F000001401408068084000D001207047C268A0
:100A000021EA02030A4043EA0241016170470AB148
:100A1000016170470904FBE70148806870470000E6
:100A200008000020704770472DE9F0410168044636
:100A30004A694E6890F83E000025D743FA050BD46A
:100A4000F243D20508D46FF4807201254A6121680F
:100A50000A6842F400420A60B90508D4F143C905A6
:100A600005D422686FF4007145F0020551617905E3
:100A700025D4F143C90522D4638D94F83D10226B2F
:100A8000202808D13BB9212910D029290ED02829A6
:100A900001D1212A0AD022686FF48061516145F0AA
:100AA0000405102806D0402804D008E0204601F0B4
:100AB00071FF04E02068016841F4007101603805AD
:100AC00008D4F043C00505D421686FF4006045F0F8
:100AD00008054861002D07D0206C2843206420467B
:100AE000BDE8F04101F0BABBBDE8F0812DE9F04767
:100AF000026800215368C66A90F83E4090F83D5065
:100B0000102C12D0402C10D0046C002C7DD05469D5
:100B1000E443A6077AD4DE43B60577D4036C03B169
:100B20009169BDE8F04701F011BF976951694FF431
:100B30002A0CC9435FEAC1784FF02A4904D06645C0
:100B40002AD04E4528D010E0DE43B6050DD4C16A48
:100B5000614501D1012103E0C16A494501D1082164
:100B6000C162BDE8F04701F057BE0E0716D4DE4360
:100B7000B60513D4416CC9B21161416B09B1896AE0
:100B800029B9816B002907D0896A002904D000683F
:100B9000416841F400614160BDE8F0878E0706D4EA
:100BA000DE43B60503D4BDE8F04701F089BDFE433E
:100BB000526876074FEA02521DD4002AECDB0A067F
:100BC00008D4DA43520505D4490705D5BDE8F047F6
:100BD00001F01ABD4907DFD4D9438905DCD4212DA2
:100BE00005D0402CD8D1BDE8F04701F05BBEBDE890
:100BF000F04701F0C7BC002ACEDB4A060BD4DA432B
:100C0000520508D4490708D501E00DE00EE0BDE823
:100C1000F04701F03DBC4907BED4D9438905BBD498
:100C2000BDE8F04701F0C6BB916970E7E10606D464
:100C3000D943890503D4BDE8F04701F0F3BE28216C
:100C4000212D27D0292D25D0650655D4DD436D05EE
:100C500052D4640752D590F83D30448D002C9BD07F
:100C60001269446A2270426A521C4262428D521ECC
:100C70004285428D002A8FD12A2B8DD1026853687C
:100C800023F4806353602222026380F83D1000F059
:100C900059F981E7250623D4DD436D0520D4640787
:100CA00020D590F83D30448D002CF2D0446A247851
:100CB0001461426A521C4262428D521E4285428D2C
:100CC000002AE6D1292BE4D10268536823F480631B
:100CD00053602122026380F83D1000F034F95BE795
:100CE0006107D6D4D9438905D3D4418D0029D0D00A
:100CF000416A097811610AE06107CAD4D9438905BC
:100D0000C7D4418D0029C4D01169426A1170416A6B
:100D1000491C4162418D491E41853DE770470000F5
:100D200070B5040025D094F83D00002520B984F862
:100D30003C50204600F0BEF8242084F83D00206896
:100D4000016821F0010101602068016841F400415F
:100D500001602068016821F40041016000F022FA7E
:100D60004D4A6168914201D84C4900E04C498842A3
:100D700001D2012070BD4B492368B0FBF1F15E68E0
:100D800026F03F060E435E606368934206D94FF437
:100D9000967359434FF47A73B1FBF3F12368491CFE
:100DA0001E6A26F03F06314319626168914210D8ED
:100DB0004900401EB0FBF1F2521CC2F30B02042AA0
:100DC00001D2042022E0B0FBF1F0401CC0F30B0084
:100DD0001CE0A268F2B301EBC10303EB0116431E52
:100DE000B3FBF6F35B1C43F480431B0549D092B37D
:100DF00001EBC10202EB0111401EB0FBF1F0401CFF
:100E0000C0F30B0040F4804040F400402168CA6900
:100E10004CF6FF739A431043C861D4E907100143AD
:100E20002068026822F0C00211430160D4E9030186
:100E300001432068826848F2FF339A43114381607E
:100E4000D4E9050108432168CA6822F0FF02104373
:100E5000C86001E00EE016E02068016841F0010181
:100E600001602564202084F83D00256384F83E500D
:100E7000002070BD01EB4106431EB3FBF6F35B1C83
:100E8000B3E70120C2E701EB4101401EB0FBF1F0E6
:100E9000401CC0F30B00B7E7A086010080841E0051
:100EA00000093D0040420F0070477047704770478F
:100EB0007047000010B586B00021009101910291A9
:100EC000039100681B49884232D11B4CA06940F055
:100ED0000800A061A069694600F0080004904FF482
:100EE0004070009012200190032003901348FFF7F8
:100EF00091FC1348416841F0E06141F0020141601A
:100F0000E06940F40010E061E069002200F40010A4
:100F1000049011461F2000F07DF81F2000F06CF8AF
:100F200000221146202000F075F8202000F064F81F
:100F300006B010BD0054004000100240000C0140FB
:100F400000000140704770470248816802781144F0
:100F50008160704708000020074810B5016841F023
:100F600010010160032000F075F80F2000F006F872
:100F700000F024F8002010BD0020024070B50D4D97
:100F800004464FF47A712878B1FBF0F00A490968F9
:100F9000B1FBF0F000F0E8FA48B9102C07D20022BB
:100FA0002146501E00F036F800206C6070BD012014
:100FB00070BD000008000020140000200C4808B597
:100FC000816941F001018161816901F001010091B4
:100FD000C16941F08051C161C06900F0805000904A
:100FE0000448416821F0E06141F00071416008BDB2
:100FF0000010024000000140002809DB00F01F0241
:10100000012191404009800000F1E020C0F800116A
:1010100070470000F0B40E4B1B680C46C3F302236C
:10102000C3F10705042D00D90425191D072901D294
:10103000002300E0DB1E012606FA05F1491E2140CF
:1010400099409E40761E16403143F0BC02F085BBAD
:101050000CED00E0064900F0070208684FF6FF03B8
:10106000184040EA0220034A10430860704700001D
:101070000CED00E00000FA052DE9F0470F460500F1
:1010800061D0434E306800F00700B84209D23068A2
:1010900020F0070038433060306800F00700B842A5
:1010A00051D128683B4C810712D5400703D56068B1
:1010B00040F4E06060602878000703D5606840F481
:1010C000605060606068A96820F0F00008436060CC
:1010D0002878C00728D06868012810D02168022825
:1010E00010D0890700292EDA616821F0030101433D
:1010F0006160FFF791FC804641F288390DE021687C
:101100008903EFE78901EDE7FFF786FCA0EB080113
:10111000494502D90320BDE8F0876068696800F09E
:101120000C00B0EB810FEFD1306800F00700B8423F
:101130000BD9306820F0070038433060306800F089
:101140000700B84201D00120E5E72878400705D51F
:101150006068E96820F4E060084360602878000770
:1011600006D56068296920F4605040EAC1006060DB
:1011700000F038F86168084AC1F30311515CC840B7
:101180000649086006480068FFF7F8FE0020C2E73D
:101190000020024000100240D0510008140000203E
:1011A0000C0000200448054900684968044AC1F35E
:1011B0000221515CC840704714000020001002401A
:1011C000E05100080448054900684968044AC1F331
:1011D000C221515CC840704714000020001002403A
:1011E000E05100080E4A51680E4801F00C03042B30
:1011F00011D0082B0FD10C48C1F38343C903C05C45
:101200000AD55168084AC1F34041921E515C054A13
:101210005043B0FBF1F07047044948437047000069
:101220000010024000127A00C051000800093D0081
:101230002DE9F84F040070D02078C04DC00749D088
:101240006868C0F38100012807D06868C0F3810096
:10125000022809D16868C00306D52868800339D5FB
:1012600060680028E7D035E06068B0F5803F0BD0BB
:1012700010B1B0F5A02F11D0286820F4803028607C
:10128000286820F4802002E0286840F4803028603C
:10129000606890B1FFF7C0FB06460AE0286840F49A
:1012A00080202860F0E700BFFFF7B6FB801B6428B2
:1012B00073D828688003F7D50CE0FFF7ADFB06462E
:1012C00005E000BFFFF7A8FB801B6428F0D8286862
:1012D0008003F7D420789A4E80074FF001094FF031
:1012E000000839D5686810F00C0F07D06868C0F3A3
:1012F0008100022809D16868C00306D428688007E5
:1013000014D52069012808D110E02069B0B1C6F8D1
:101310000090FFF781FB074605E00AE1FFF77CFB41
:10132000C01B0228C4D828688007F7D528686169DF
:1013300020F0F80040EAC10028600DE0C6F8008007
:10134000FFF76AFB074604E0FFF766FBC01B0228B5
:1013500023D828688007F7D4207800072CD579484F
:10136000A169D9B1C0F80090FFF756FB074604E029
:10137000FFF752FBC01B02280FD8686A8007F7D519
:1013800071484FF4FA510068B0FBF1F0009000BFD3
:101390000098411E0091FAD20EE080E0C0F8008073
:1013A000FFF73AFB074604E0FFF736FBC01B0228B5
:1013B00075D8686A8007F7D42078400760D5E86957
:1013C0000027C00008D4E86940F08050E861E8696F
:1013D000012700F0805000905C480168C90513D4D3
:1013E0000168834641F480710160FFF715FB824676
:1013F00006E000BFFFF710FBA0EB0A0064284ED800
:10140000DBF80000C005F5D5E06801280AD008B176
:10141000052813D0286A20F001002862286A20F0ED
:10142000040002E0286A40F001002862E06841F20E
:10143000883B98B1FFF7F0FA82460BE0286A40F04B
:1014400004002862EEE700BFFFF7E6FAA0EB0A010E
:1014500059455AD8286A8007F6D50CE0FFF7DCFA20
:10146000824605E0FFF7D8FAA0EB0A0159454CD8AF
:10147000286A8007F6D41FB1E86920F08050E8613F
:10148000E06988B36968C1F38101022944D0022868
:10149000C6F8608004D0FFF7BFFA044638E034E0B5
:1014A000FFF7BAFA074604E0FFF7B6FAC01B0228B6
:1014B0002BD828688001F7D4206AB0F5803F05D189
:1014C0006868A16820F4003008436860D4E9080126
:1014D0000843696821F4741108436860C6F8609095
:1014E000FFF79AFA044606E025E000BFFFF794FAFA
:1014F000001B022809D828688001F7D51BE000BF2F
:10150000FFF78AFA001B022802D90320BDE8F88FF2
:1015100028688001F4D40EE00128F7D06868226AB8
:1015200000F48031914204D1616A00F47010884265
:1015300001D00120EAE70020E8E7000000100240A7
:10154000000042428004424214000020007000402B
:101550004FF0E0210428086903D020F0040008615E
:10156000704740F00400FAE710B5401EB0F1807FEC
:1015700001D3012010BD4FF0E02460610F216017FE
:1015800002F0EBF80020A06107202061002010BDD0
:101590007047704770B590F83C20012A26D001248E
:1015A00080F83C40022280F83D2003685A689D681C
:1015B00022F070060A6832435A600D4B02689A4264
:1015C00008D0B2F1804F05D00A4B9A4202D00A4BA4
:1015D0009A4204D1496825F080031943916080F84C
:1015E0003D40002180F83C10084670BD022070BDCF
:1015F000002C0140000400400008004010B5040029
:1016000003D094F83D0010B107E0012010BD002088
:1016100084F83C00204600F01FF8022084F83D00CA
:10162000211D206801F09CFD012084F8460084F80B
:101630003E0084F83F0084F8400084F8410084F8BC
:10164000420084F8430084F8440084F8450084F89C
:101650003D00002010BD000000B585B000210091C4
:10166000019102910391344B0268344934489A4203
:1016700033D18A6942F400628A618A6902F40062A5
:1016800004928A6942F004028A61896901F00401C6
:101690000491811500916946FFF7BCF800221146BC
:1016A0001820FFF7B7FC1820FFF7A6FC0022114610
:1016B0001920FFF7AFFC1920FFF79EFC002211460E
:1016C0001A20FFF7A7FC1A20FFF796FC002211460C
:1016D0001B20FFF79FFC1B2013E0B2F1804F14D0BA
:1016E000184882420FD1C86940F00200C861C86939
:1016F000002200F00200049011461D20FFF78AFC32
:101700001D20FFF779FC05B000BDCA6942F0010257
:10171000CA61CA6902F0010204928A6942F00402B5
:101720008A61896901F004010491012100916946EF
:10173000FFF770F8E7E70000002C014000100240BE
:10174000000801400004004070B5044690F83C00D9
:101750000025012817D0012684F83C60022084F877
:101760003D002068826822F0770222F47F42826086
:101770000868502838D00DDC20284FD005DC90B305
:10178000102811D14AE0022070BD302846D04028F0
:101790000AD13BE060282FD070280DD0B0F5805FD3
:1017A00003D0B0F5005F12D0012584F83D60002021
:1017B00084F83C00284670BDCB68D1E9012120683F
:1017C00001F017FD2068816841F0770109E0CB68DE
:1017D000D1E90121206801F00CFD2068816841F405
:1017E00080418160E1E719E0CA684968206801F03A
:1017F00058FD5021206806E0CA684968206801F059
:1018000061FD6021206801F0FEFCCEE7CA684968EE
:10181000206801F046FD40212068F4E72268014677
:101820001046F0E770B590F83E60044690F83F50DF
:1018300090F8423090F84320022021B104290ED0C4
:10184000012E1BD114E0012E18D1012B16D184F8E2
:101850003E0084F8420001220021206820E0012D92
:101860000CD1012A0AD184F83F0084F8430014E027
:10187000012D03D1012B01D1012A01D0012070BD1E
:1018800084F83E0084F83F0084F8420084F8430066
:1018900001220021206801F09FFC01220421206820
:1018A00001F09AFC2068016841F00101016000200C
:1018B00070BD70472DE9F04104460068C6680569AF
:1018C0004FF00007A90713D5B10711D5F91E016123
:1018D00001202077206880698007204602D0FFF72A
:1018E000E8FF04E000F07EF8204600F07CF827775F
:1018F000680716D5700714D521686FF004000861D9
:10190000022020772068806910F4407F204602D0B2
:10191000FFF7CFFF04E000F065F8204600F063F821
:101920002777280715D5300713D521686FF00800F1
:101930000861042020772068C0698007204602D013
:10194000FFF7B7FF04E000F04DF8204600F04BF839
:101950002777E80616D5F00614D521686FF0100039
:101960000861082020772068C06910F4407F204675
:1019700002D0FFF79EFF04E000F034F8204600F0AC
:1019800032F82777E80708D0F00706D021686FF013
:1019900001000861204600F027F8280608D5300627
:1019A00006D521686FF0800008612046FFF7F0FD42
:1019B000680608D5700606D521686FF040000861FA
:1019C000204600F03DF8A8060AD5B00608D52168E3
:1019D0006FF0200008612046BDE8F041FFF7D9BD57
:1019E000BDE8F08170477047704770B5044690F8C5
:1019F0003C00012812D0012584F83C50022084F8D4
:101A00003D00204601F007FC01004FF0000007D028
:101A100084F83D5084F83C00012070BD022070BD68
:101A20002168CA6822F04002CA602168CA6822F4AC
:101A30008042CA6084F83D5084F83C00002070BDAC
:101A4000704738B5044690F84200202801D00220A3
:101A500038BD51B14AB101202063002060632046A7
:101A600001F0B4FD216B012901D0012038BD2168AE
:101A70000A684968009121680C3151E8002F42F052
:101A8000100241E80023002BF5D138BD10B50068E5
:101A9000124A904221D112484078532816D10A4662
:101AA0000F49A1F10B00FEF78FFB0D480B38B0F981
:101AB000060003F08DF96FF00E0103F042FB0949B7
:101AC00003F09EF90849486001200870BDE8104005
:101AD0000B2203490548FFF7B4BF10BD0038014091
:101AE00063020020DB0F4940180000206401002041
:101AF00070B5044620680C3050E8001F21F4F071E6
:101B000040E80012002AF5D12068143050E8001F88
:101B100021F0010140E80012002AF5D1206B0128D4
:101B200009D120680C3050E8001F21F0100140E876
:101B30000012002AF5D1206840694FF01006000617
:101B40004FF0000515D52068143050E8001F21F033
:101B5000800140E80012002AF5D1A06B48B145632E
:101B6000A06BFEF7D1FC20B1A06BFEF73DFD202855
:101B700024D020684069400615D52068143050E80C
:101B8000001F21F0400140E80012002AF5D1E06B6F
:101B900048B14563E06BFEF7B7FC20B1E06BFEF7A0
:101BA00023FD20280AD0E584E5856564202084F89B
:101BB000420084F841002563002070BD6664032064
:101BC00070BD70B5044620680C3050E8001F21F449
:101BD000907140E80012002AF5D12068143050E8D6
:101BE000001F21F0010140E80012002AF5D1206B0E
:101BF000012809D120680C3050E8001F21F01001A5
:101C000040E80012002AF5D1206840694FF0000535
:101C1000400615D52068143050E8001F21F040011F
:101C200040E80012002AF5D1E06B48B14563E06B53
:101C3000FEF76AFC20B1E06BFEF7D6FC202806D048
:101C4000E585202084F842002563002070BD102027
:101C50006064032070BD000000680349884201D120
:101C600001F066B97047000000440040F8B5016813
:101C700004460868CA684B6910F00F0F4FF0000562
:101C800059D003F0010602F49077374365D0C107BD
:101C900005D0D10503D5616C41F0010161644107B4
:101CA00005D5D90703D0616C41F002016164810759
:101CB00005D5D90703D0616C41F0040161640107C7
:101CC00007D502F02001314303D0616C41F00801D7
:101CD0006164616C00293AD0800604D5900602D573
:101CE000204601F0B5FB20684069616CC0F38010AC
:101CF000090700D460B3204601F075FB20684069F5
:101D0000400621D52068143050E8001F21F0400122
:101D100040E80012002AF5D1E06BA8B16D4941639B
:101D2000E06BFEF715FC002811D0E06B416B01B0B1
:101D3000BDE8F040084783060FD593060DD5204631
:101D4000BDE8F84001F084BB2046FFF785FFF8BDF1
:101D50002046FFF781FF6564F8BD266B2023012E26
:101D60007CD1C6067AD5D60678D508684868009032
:101D700048694FF00206400640D5E16B08684068AC
:101D80000004000CE8D0A28D8242E5D9E085886984
:101D900020282DD020680C3050E8001F21F48071DD
:101DA00040E80012002AF5D12068143050E8001FE6
:101DB00021F0010140E80012002AF5D1206814301A
:101DC00050E8001F21F0400140E80012002AF5D140
:101DD00084F84230256320680C3050E8001F21F061
:101DE000100140E80012002AF5D1E06BFEF78CFBF1
:101DF0006663A08DE18D401A81B22AE0A08DE18D4D
:101E0000401A81B2E08D0028A6D00029A4D0226813
:101E10000C3252E8000F20F4907042E80007002FC7
:101E2000F5D12068143050E8002F22F0010240E87C
:101E30000027002FF5D184F84230256320680C304C
:101E400050E8002F22F0100240E80023002BF5D1CB
:101E500066632046FFF71AFEF8BDFFE705062BD59F
:101E6000150629D594F841002128F5D1A068B0F5D0
:101E7000805F01D12069B0B1206A411C21622168D4
:101E800000784860E08C401E0004000CE084E3D140
:101E90002068C16821F08001C1602068C16841F0FC
:101EA0004001C160D8E7206A0088C0F3080048609C
:101EB000206A801C2062E5E74006CDD55006CBD5D0
:101EC000CA68204622F04002CA6084F8413000F01F
:101ED00047F9C1E7E932000870B5040004D094F86E
:101EE0004100002510B106E0012070BD84F840508B
:101EF000204600F023F8242084F841002068C168BF
:101F000021F40051C160204601F004FB2068016902
:101F100021F4904101612068416921F02A01416169
:101F20002068C16841F40051C1606564202084F8D4
:101F3000410084F842006563002070BDF0B585B0B3
:101F40000024009401940294039406463B4D0368D8
:101F50003B4802210322AB4241D1836943F48043D1
:101F60008361836903F480430493836943F0080326
:101F700083618069334D00F0080004904020CDE972
:101F80000001039269462846FEF744FC8027CDE90C
:101F90000074694628460294FEF73CFC2A484168D2
:101FA00041F0E06141F004014160294D2748C5E955
:101FB0000004C5E902472C61B8016C61C5E906401F
:101FC0002846FEF7C1FB08B1FEF79CFAF563002234
:101FD000114625206E62FFF71DF8252029E01D4DD2
:101FE000AB4228D1C36943F40033C361C36903F42E
:101FF00000330493836943F0040383618069164DC1
:1020000000F0040004900420CDE900010392694629
:102010002846FEF7FFFB0820CDE900046946284664
:102020000294FEF7F7FB002211462620FEF7F2FF8E
:102030002620FEF7E1FF05B0F0BD000000380140AA
:1020400000100240000C0140000001405800024016
:10205000F4010020004400400008014090F84230A4
:10206000202B01D00220704721B11AB10023036355
:1020700001F0F4BA0120704700680349884201D199
:1020800000F02CBF704700000044004070472DE96D
:10209000F843044690F84100984616460D4620281D
:1020A00002D00220BDE8F88385B17EB100206064D3
:1020B000212084F84100FEF7AFFCA6848146E68427
:1020C000A0682027B0F5805F02D003E00120E9E797
:1020D000206910B12E4600250EE000260CE080217C
:1020E000204601F0D6FAA8B9C6B116F8010B21684E
:1020F0004860E08C401EE084E08C4B464FF00002CC
:10210000CDF800800028EAD14FF04001204601F0D0
:10211000C0FA40B184F841700320C3E735F8020BE0
:10212000C0F30800E3E784F841700020BAE790F8B4
:102130004130202B01D00220704779B172B1016289
:102140008284C28400214164212180F8411000680A
:10215000C16841F08001C1600020704701207047D4
:1021600000680349884201D100F09EBF704700001B
:1021700000440040FEE700000148FEF755BC0000A7
:10218000380000200148FEF7B1BC000038000020F4
:1021900038B5406A002190F83D202B4B46F2A81438
:1021A0001B68B3FBF4F3C3EBC30303EB830300939C
:1021B0003BB15B1E009303681B689B0505D5009B24
:1021C000F6E7036C43F020030364436B03B19962A9
:1021D000836B03B1996203681C6824F480641C60FB
:1021E0004185436B03B15963836B03B15963036842
:1021F0001C6824F001041C6090F83D402023602CF2
:102200000BD0282434EA02020FD080F83D3080F849
:102210003E1000BFFEF782FD38BD80F83D3080F8EB
:102220003E100164FEF7FEFB38BD0268136843F000
:10223000010313600268136843F480631360016351
:1022400080F83D40E6E70000140000200068416986
:10225000C943090601D400210161704770B50446E5
:1022600090F83D0094F83E10102901D0402906D185
:10227000222804D121680A6822F400620A60282119
:1022800031EA00024FF000054FF0200626D0216809
:102290004968090505D4602803D084F83D6084F8B6
:1022A0003E50256320684168090537D5416821F40F
:1022B00000614160606B90F821203C49012A11D0F7
:1022C0004163606BFEF744F938B32068016821F080
:1022D0000101016084F83D60606B1CE0256384F8B7
:1022E0003D10DFE7A06B4163A06BFEF731F9A0B1B1
:1022F00020684169C943490605D40069616A0870CC
:10230000606A401C60622068016821F00101016080
:1023100084F83D60A06B416B884710E094F83D1055
:10232000602910D04169C943490605D40069616A32
:102330000870606A401C60622046FEF7EFFC206C6B
:10234000C1071CD115E084F83D6025644169C9438B
:10235000490605D40069616A0870606A401C6062C1
:102360002068016821F0010101602046FEF75AFB58
:10237000E5E7810703D4410701D4000704D52068AD
:10238000416821F4E061416094F83D00216C490707
:102390000BD5282809D10648E062256384F83D6002
:1023A00084F83E502046FEF77FFD70BD9121000865
:1023B0000000FFFF10B5C26A438D0168042B06D0F0
:1023C000438D032B08D0438D022B1DD012E04A68A9
:1023D00022F480624A600CE04B6823F480634B6017
:1023E000042A06D0022A04D001680A6822F4806216
:1023F0000A6001680969426A1170416A491C4162B8
:10240000418D491E418510BD012A34D0102A32D099
:10241000042A34D0022A32D00B6843F400730B60D4
:1024200001680969436A1970416A491C4162438D18
:102430005B1E438503681B690B70416A491C41623E
:10244000418D491E418501684B6823F440734B6000
:10245000202180F83D1090F83E300021402B80F87C
:102460003E1010D0082A02D0202A00D01221016389
:10247000FEF71BFD10BD0B6823F48063CFE70B68EC
:1024800043F48063CBE70163FEF711FD10BD00004C
:1024900038B590F83D10222910D1C36A418D032927
:1024A0000DD901680969426A1170416A491C41628B
:1024B000418D491E4185418D032906D038BDC26A30
:1024C000022A02D0012906D029B10068416821F40E
:1024D0008061416038BD2A4A46F2A8140021126882
:1024E000B2FBF4F202EB8202009202682024009D0B
:1024F0006D1E009526D01568AD05F8D4156825F435
:10250000806515600268556825F4E06555600268CD
:102510001269456A2A70426A521C4262428D521EFA
:10252000428580F83D4090F83E2080F83E10402AD9
:1025300021D0082B02D0202B00D012210163FEF7FE
:10254000B4FC38BD036C43F020030364536823F4E8
:10255000E063536002681269436A1A70426A521C4F
:102560004262428D521E428580F83D4080F83E1006
:10257000FEF7D4FB38BD0163FEF799FC38BD0000BF
:102580001400002010B5C26A90F83D1021290BD12B
:10259000418D51B1416A026809781161416A491C53
:1025A0004162418D491E418510BD20230021082A2A
:1025B00013D0202A11D012F5803F0ED00268546843
:1025C00024F4E06454601122026380F83E1080F825
:1025D0003D3000BFFEF76AFC10BD0268546824F469
:1025E000E06454600268146844F400741460016389
:1025F00080F83D3090F83E2080F83E10402AE9D126
:10260000FEF756FC10BD000010B590F83D1090F894
:102610003E30C26A048DB4B1212903D0402B11D1C0
:1026200022290FD1418DE1B390F83E10402942D0CC
:10263000416A026809781161416A491C4162418D11
:10264000491E418510BD2129E8D120230021082AF7
:1026500013D0202A11D012F5803F0ED002685468A2
:1026600024F4E06454601122026380F83E1080F884
:102670003D3000BFFEF71AFC10BD0268546824F418
:10268000E06454600268146844F4007414600163E8
:1026900080F83D3090F83E2080F83E10402AE9D185
:1026A00000E002E0FEF704FC10BD0068416821F480
:1026B0008061416010BDBDE8104000F0F3B800003B
:1026C00078B590F83E50C26A046B90F83D600023E4
:1026D0000168222E73D1066D0EB9402D6FD0056DA5
:1026E0001DB90569B5F5404F1BD0458D95B3468D95
:1026F000484D012E20D0448D022C4DD00C6844F45E
:1027000080640C6001684C68240579D5AA4273D0B6
:10271000012A71D0082A6FD0102A6DD0202A6BD0E0
:102720006EE04A698A6900920A6842F480720A601F
:10273000016D491C016578BDAA4214D10A6822F4D2
:1027400080620A6001684A68120504D50A6822F4AA
:10275000806217E0FFE74A698A6900920A6842F4DA
:1027600000720A6050E0082A10D0202A0ED0122CE5
:102770000AD0042A03D0022A01D0102AE6D10A681E
:1027800042F480620A603BE0012ADFD00A6822F44A
:1027900080620A600168DEE7042A11D0022A0FD0A5
:1027A000102A0DD00C6844F400640C6001684C6978
:1027B0008C6900940C6824F480640C6008E025E0C7
:1027C0000C6844F480640C6001684C69896900916C
:1027D00001684C68240517D5AA4207D0012A05D004
:1027E000082A03D0102A01D0202A0DD14A6842F4C9
:1027F00080524A6008E0FFE74A6842F480524A602B
:1028000001684A6989690091036578BD48698869EA
:10281000009078BD0000FFFF90F83E10402910D0D6
:102820000169B1F5804F19D0016DA9B3016D01297E
:1028300010D1416C5FF0F10201F4407142EAD11114
:1028400006E0016D0029416C05D0C9B241F00101DB
:1028500000680161704701F0FE01F9E790F83D1052
:102860002129416C09D0C9B241F00101026811610E
:10287000416B29B1896A49B902E001F0FE01F5E72F
:10288000816B0029E6D0896A0029E3D0006841689D
:1028900041F4006141607047FFE7416CF02201F4B0
:1028A0004071CBE710B590F83D10026D4AB1026D52
:1028B000012A14D0026D022A16D0BDE81040FFF79D
:1028C000C5BCC16C0129816C02D0C1F3072108E0AD
:1028D0000268C9B21161016D891C016510BD816C6E
:1028E000C9B20268116123E022291CD0428D0AB1CD
:1028F000212920D0428D002AF0D12129EED1016872
:102900004A6822F4E0624A6001680A6842F4007290
:102910000A6000210163202280F83D2080F83E10EB
:10292000FEF7C6FA10BD01680A6842F480720A60B8
:10293000016D491CD1E7416A026809781161416A59
:10294000491C4162418D491E418510BD38B50C4678
:1029500090F83D2000212825954302680B4605D0BC
:1029600051699169009180F83C3038BD556825F473
:1029700080655560E243540700D50121120601D558
:10298000828900E0028B80F83C3092B2FEF74BF86F
:1029900038BD00002DE9F04190F83D300446C26A90
:1029A000002120261E4F00686FF48065082A01D0A0
:1029B000202A01D1282B04D0212B17D04561BDE856
:1029C000F081E762426822F4E0624260206845617B
:1029D0002068026822F480620260216384F83D600E
:1029E00084F83E102046FEF75FFAE8E7E76221220E
:1029F000226384F83D6084F83E10416821F4E06170
:102A00004160206845612068016821F480610160AF
:102A10002046FFF71BFC2046FEF795FACFE70000A3
:102A20000000FFFFF8B590F83D600446006841687B
:102A300021F4E0614160206800254169009101684E
:102A400041F0010101602068016821F480610160AA
:102A500020684168090520D5474F222E48D02A2EEC
:102A600046D0616B096849686185618D19B1216C37
:102A700041F004012164416821F400614160606B10
:102A8000FDF7B4FD012808D0606B4763606BFDF76C
:102A90005FFD10B1606B416B8847608D08B32068A3
:102AA0004169C943490708D40069616A0870606ACE
:102AB000401C6062608D401E608520684169C9438A
:102AC000490608D40069616A0870606A401C606247
:102AD000608D401E6085608D18B1206C40F0040050
:102AE0002064206C00B32046BDE8F840FFF7B6BB79
:102AF000A16B096849686185618D19B1216C41F04C
:102B000004012164416821F400614160A06BFDF77C
:102B10006DFD0128C1D0A06B4763A06BFDF718FDC8
:102B20000028BAD0A06BB6E72A2E06D1256328204C
:102B300084F83D002046FEF705FA94F83D10202069
:102B400028290DD0216B222901D0222E07D12563FF
:102B500084F83D0084F83E502046FEF7F3F9F8BDB6
:102B60000649E162256384F83D0084F83E50204622
:102B7000FEF79AF9F8BD0000912100080000FFFF60
:102B800003480078002801D100F004B87047000025
:102B9000180000200B2202490248FEF752BF000035
:102BA000630200206401002010B5FFF7F3FFBDE8C9
:102BB000104000F001B800001CB50CA1D1E90001E3
:102BC000CDE90001142001F0E1F90A4C08E00A23E4
:102BD000052269460848FFF75AFA142001F0D6F991
:102BE000606810F0FF4FF2D11CBD0000FFAA760014
:102BF000000000001800002064010020094808B50A
:102C0000416941F0010141614069002200F0010089
:102C1000009011460F20FEF7FDF9BDE808400F2097
:102C2000FEF7EAB9001002402DE9F04385B0002418
:102C30002A480094019402940394816941F01001A0
:102C40008161816901F010010491816941F02001E5
:102C50008161816901F020010491816941F00401E1
:102C60008161816901F004010491816941F00801E9
:102C700081618069DFF8688000F008004FF400553A
:102C80000490002229464046FDF7C1FEDFF854902B
:102C90004CF22007002239464846FDF7B8FE009561
:102CA000022601250396CDE9015469464046FDF709
:102CB000B1FD00970396CDE9015469464846FDF7FA
:102CC000A9FD4FF44060CDE900046946064802942E
:102CD000FDF7A0FD05B0BDE8F08300000010024044
:102CE00000100140000C0140000801400D4810B5E3
:102CF0000B4901600C49416000214FF48042816022
:102D0000C0E9031241618161C1610162FEF708F807
:102D1000002803D0BDE81040FDF7F4BB10BD000053
:102D20000054004038000020A086010010B588B093
:102D300014216846FDF78DFA0024164805941449BD
:102D40000694C0E900144FF6FF71C0E90241046126
:102D500044618461FEF752FC08B1FDF7D3FB072004
:102D600000905020CDE9010469460A480494FEF71A
:102D70003CFE08B1FDF7C6FB059405A9054806947D
:102D8000FEF708FC002801D0FDF7BCFB08B010BD21
:102D9000002C01408C00002010B588B0142168463A
:102DA000FDF757FA0024154805944FF0804106942A
:102DB000C0E900144FF6FF71C0E90241046184616B
:102DC000FEF71CFC08B1FDF79DFB0720009050208A
:102DD000CDE90104694609480494FEF706FE08B1EE
:102DE000FDF790FB059405A904480694FEF7D2FB75
:102DF000002801D0FDF786FB08B010BDD4000020EC
:102E000010B586B0002416480094019402940394EF
:102E100004941249059401604721C0E90114092175
:102E2000C0E903148461FEF7E9FB08B1FDF76AFB12
:102E30004FF48050009069460948FEF785FC08B1C0
:102E4000FDF760FB049404A905480594FEF7A2FB76
:102E5000002801D0FDF756FB06B010BD000400406D
:102E60001C0100200C4810B50A4901604FF4E13103
:102E70004160002181600C22C160C0E904128161BF
:102E8000C161FFF729F8002803D0BDE81040FDF725
:102E900039BB10BD00380140640100200C4810B55A
:102EA0000A4901604FF4E1314160002181600C2248
:102EB000C160C0E904128161C161FFF70DF800280B
:102EC00003D0BDE81040FDF71DBB10BD004400401D
:102ED000AC010020FEE7FEE77047000070B5124C21
:102EE000012525712046667810490078C5231EB15A
:102EF0000022012E0CD104E0C5280AD10B706570A8
:102F000007E0C5280ED04870074809882838018195
:102F1000627000F09FF8002803D0E5706069401CE3
:102F2000606170BD0B70F4E7DC020020300000200F
:102F3000094810B5416C0948C1608168491C81602D
:102F40000021417001210171C1700348FEF739FE73
:102F5000BDE8104000F088B8AC010020DC02002081
:102F600070B518210C48FDF774F90B4C00200125B1
:102F70006070257100F06EF818B1E5706069401C52
:102F8000606101F061F8044C283C606001F066F873
:102F900020605C20A07270BDDC02002070B50324AC
:102FA0000B4D0C4E04E0012000F0F0FF641EE4B273
:102FB000A87818B996F84100202801D0002CF2D149
:102FC0000448FEF795FD0020A870E87070BD000071
:102FD000DC020020AC01002010B500F045F81B4CCD
:102FE000A07820B91A4890F84100202803D0206921
:102FF000401C206110BD207918B12079401E20713D
:1030000010BD124828384168CA6AC0F80B200A6B04
:10301000C0F80F20496BC0F8131000F10A010E220E
:103020001830FDF7D1F809480E21103800F0C6FE1F
:103030000120A07005490E2210390548FFF777F8E6
:103040000028DDD00020A070D1E70000DC020020C5
:10305000AC010020012202490248FEF7FFBF000038
:10306000DC020020AC01002038B50D4CE0780028CF
:1030700012D0A07800280FD10A4890F842102029D9
:103080000AD100680025016840680090FFF7E2FF60
:1030900018B16069401C606138BDE57038BD000042
:1030A000DC020020AC0100200348002181700121D6
:1030B0000171FFF7D9BF0000DC0200207047FDF767
:1030C00043BF30B58FB028216846FDF7C2F8142100
:1030D0000AA8FDF7BEF801210804CDE9001000247C
:1030E000029402250491CDE907504FF4E0100990B5
:1030F0006846FEF79DF808B172B6FEE70F20CDE9ED
:103100000A054FF48060CDE90C400E9002210AA818
:10311000FDF7B2FF002801D072B6FEE70FB030BD58
:10312000704700000148FEF7C5BB00008C0000207E
:103130000148FEF7BFBB00008C0000200148FEF7ED
:10314000B9BB00008C0000200148FEF7B3BB0000B3
:103150008C0000200148FEF7ADBB00001C010020E0
:10316000F0B50268194B1A4C1A4D4FF0804798423F
:1031700005D0B84203D0A04201D0A84203D122F02A
:1031800070064A683243984205D0B84203D0A04244
:1031900001D0A84203D122F44074CA6822434C698A
:1031A00022F08002224302608A68C2620A68826258
:1031B000984201D109690163012141610169C9078F
:1031C00003D0016921F001010161F0BD002C014033
:1031D000000400400008004010B501F01F03012169
:1031E000046A99408C430462016A9A401143016267
:1031F00010BD10B5846842EA032224F47F440A43D8
:103200002243826010BD826822F070020A4342F0BD
:1032100007018160704770B5036800249A6822F046
:1032200070054A682A4322F007050A682A439A6013
:103230004A6812F00F0F31D11211082A2ED2DFE89E
:1032400002F02E2E2E2E0B2127040B69D1E902212C
:103250000068FFF7CEFF22E00A68052A10D0026856
:10326000136A156A25F001051562026895690969F6
:1032700025F0F00545EA01119161006803620EE056
:10328000012070BD0A698968006800F00AF806E04C
:103290000A698968006800F015F800E001242046FA
:1032A00070BD10B5036A046A24F0010404628469E5
:1032B00024F0F00444EA021423F00A020A43846171
:1032C000026210BD10B5036A046A24F0100404629F
:1032D000846923F0A00324F4704444EA023243EAF0
:1032E00001118261016210BD10B5406A0021C185E3
:1032F000C184FEF7B1FC10BD70B5446A2068406916
:1033000094F84110C0F3C0100025212904D118B150
:10331000E584204600F08EF82068406994F8421059
:10332000C0F38010222904D118B1E585204600F0B1
:103330005AF8606C40F0100060642046FEF78CFC88
:1033400070BD10B50146406A096809684FF0000277
:1033500089062ED4C28501680C3151E8003F23F460
:10336000807341E80034002CF5D10168143151E834
:10337000003F23F0010341E80034002CF5D101683F
:10338000143151E8003F23F0400341E80034002CA1
:10339000F5D1202180F84210016B012909D1016883
:1033A0000C3151E8003F23F0100341E80034002CB9
:1033B000F5D14263016B012902D0FEF75DFE10BD1D
:1033C000818DFEF763FB10BD10B5406A012141639A
:1033D000016B012902D0FEF759FE10BD818D49080D
:1033E000FEF754FB10BD01680C3151E8002F22F4A8
:1033F000907241E80023002BF5D10168143151E8A7
:10340000002F22F0010241E80023002BF5D1016BCF
:10341000012909D101680C3151E8002F22F0100276
:1034200041E80023002BF5D1202180F84210002133
:103430000163704701680C3151E8002F22F0C0028F
:1034400041E80023002BF5D1202180F8411070477E
:1034500008B590F84210222901D0022008BD8268E8
:103460004FF480539A4201D1016921B1816A9A4295
:103470001BD04AB10AE00268816A5268C2F30802AE
:103480000A80816A891C08E0026972B10268526888
:1034900002F07F020A70816A491C8162C18D491E57
:1034A0000904090CC18503D01BE002685268F1E7EA
:1034B0000168CA6822F02002CA600168CA6822F462
:1034C0008072CA6001684A6922F001024A612021C3
:1034D00080F8421000214163026B012A03D0FEF7FD
:1034E000CBFD002008BD016301680C3151E8002FBD
:1034F00022F0100241E80023002BF5D101680A6890
:10350000D20602D50A6849680091818DFEF7BEFA9D
:10351000E7E7000070B5044600680169E26821F43D
:103520004051114301612169A06808436169084362
:103530002168CA6841F20C639A430243CA6020685A
:103540004169A26921F44071114341611E4920681B
:10355000884202D1FDF736FE01E0FDF723FE00EBC5
:10356000C00101EB0012606864218000B2FBF0F33F
:10357000B3FBF1F36FF018067343B2FBF0F5B2FB47
:10358000F0F605EB8305322303EB0515B5FBF1F5EA
:10359000B6FBF1F605F0F00505EB0615B2FBF0F60B
:1035A000B2FBF0F0B0FBF1F06FF01802504306EB05
:1035B000800003EB0010B0FBF1F0216800F00F0079
:1035C0002844886070BD00000038014038B5816231
:1035D00004468285002013466064222284F842203B
:1035E000E56B1B4AAA62E56B1A4AEA62E56B1A4A66
:1035F0002A63E26B50630A462168E06B091DFDF700
:10360000D1F82068016840680090206948B12068BE
:103610000C3050E8001F41F4807140E80012002A8D
:10362000F5D12068143050E8001F41F0010140E856
:103630000012002AF5D12068143050E8001F41F034
:10364000400140E80012002AF5D1002038BD0000FA
:1036500043330008C9330008F932000881628285CB
:10366000C28500214164222180F84210016921B104
:103670000168CA6842F48072CA6001684A6942F00F
:1036800001024A610068C16841F02001C160002068
:1036900070472DE9F843984617460D460446089EA4
:1036A00024E0701C22D0FDF7B7F9A0EB0800B0426F
:1036B0001AD8CEB12068C168490717D5802D15D01A
:1036C000402D13D00168C94309070FD401680025B4
:1036D000406800902046FFF786FE0820606484F86A
:1036E00040500120BDE8F8830320FBE72068006814
:1036F00035EA000004D00020B842D2D00020F1E723
:103700000120F9E710B50548FEF7B0FABDE8104012
:103710000B2203490148FEF794B900006401002020
:10372000630200200148FEF7A1BA0000AC010020AE
:10373000FEE7490050EAC12018BF04204A0D18BF17
:1037400040F0010040F2FF72B2EB515F08BF40F061
:103750000200012808BF052070470907090E00284C
:1037600004DB00F1E02080F80014704700F00F0047
:1037700000F1E02080F8141D704700002DE9F74F9C
:10378000144694B00021C4E902111599079121F063
:103790000045C9498D4206DC1599C4E9000117B0FE
:1037A0000020BDE8F08FC549DFF814A3A9423CDD35
:1037B0000799C44E0029C44FC44A1599534619DDD0
:1037C00001F0C6F8554506D0C14AC24B01F0C0F819
:1037D000C4E900010AE04FF0D352BE4B01F0B8F843
:1037E00032463B4601F0B4F8C4E9000117B00120AD
:1037F000BDE8F08F00F040FD554506D0B44AB54B0A
:1038000000F03AFDC4E900010AE04FF0D352B14B99
:1038100000F032FD32463B4600F02EFDC4E90001C7
:1038200017B04FF0FF30BDE8F08FAB49A9421599B2
:1038300078DB21F0004183468846A84AA84B00F077
:103840007DFF0022A74B00F017FD00F01DFF09903F
:1038500000F049FF06460F469C4A534600F06EFFB3
:1038600043465A4601F068F880468A46984A994B82
:103870003046394600F062FF2A0D01250B92424680
:10388000534601F059F8032DC4E9000139D00B98D3
:10389000C1F30A51401A05EB45111139814230DA62
:1038A0009148C346784400EB0510CDF80CA00C906D
:1038B000D0E900233046394600F040FF02460B466F
:1038C000049106905846039901F042F880468A46D2
:1038D00002460B465846039901F03AF8049B069AB3
:1038E00001F036F883460C9803913946D0E902235B
:1038F000304600F023FF5A46039B01F029F86D1C67
:10390000BDE707980028A2BF099817B0BDE8F08F5F
:10391000616881F000416160099817B04042BDE8DC
:10392000F08FFFE784461598C1F31301C0F30A50E6
:10393000A0F2F5304FEA601800F01F06C6F1200033
:10394000139000200690079041F4801E05206D46DC
:1039500076B1664A08EB00017A4452F8213002EB56
:103960008101B3404A68139922FA01F1194305E035
:103970005F4908EB0002794451F82210A1FB0E27A1
:10398000A1FB0C131A449A4234BF0123002303EB1A
:10399000070A05EB8003D3E901B70F448F4234BF18
:1039A0000121002193448B4411B1934502D903E0D6
:1039B000934501D2012100E00021C3E901B7514440
:1039C00045F82010011EA0F10100C1DC0298059FFE
:1039D00000F10050800F12900298DDE9035680003C
:1039E00000F081FE834628460D9100F093FE6FF0B3
:1039F0001D0201F078FBCDE90E01304600F08AFE91
:103A00006FF03D0201F06FFB80468A46384600F0B9
:103A100081FE6FF05D0201F066FB074642465346A9
:103A2000119100F029FCDDE90E2300F025FC5A4637
:103A30000D9B00F021FC00250E465A4628460D9BA2
:103A400000F086FFDDE90E2300F082FF4246534678
:103A500000F07EFF3A46119B00F06EFFDFF898A061
:103A6000244A534600F06AFE07468846234A244B00
:103A70003146284600F062FE3A46434600F0FCFB21
:103A8000074688464FF0A84253463146284600F084
:103A900055FE3A46434600F0EFFB159A12F0004FF0
:103AA00004D0129A81F0004152421292C4E90001FE
:103AB000129817B0BDE8F08FFB21E93F7CD9024096
:103AC000FB21F93F7370032E8A19A33B0000405479
:103AD0003163621A61B4D03DFB21394183C8C96D9D
:103AE000305FE43F0000E03F701C0000EC1B000072
:103AF000CE1B0000182D4454FB21F93D3326A6119E
:103B0000460B113C2DE9FF4D21F0004807460C46BD
:103B1000B8F1795F08DA00F0B7FD002801BF002096
:103B2000324904B0BDE8F08D3A46234610461946A6
:103B300000F004FE054602462D480E460B460621BF
:103B4000784400F05DF82A46334600F0F7FDDDE9E1
:103B5000022382468B463846214600F0EFFD04469C
:103B60000F4652465B462846314600F0E7FD2246A6
:103B70003B4600F0EDFE07468A464FF0FF322846EE
:103B8000314601F0B0FA1B4A90450ADA3A465346EC
:103B900000F0DEFE04B00022BDE8F04D134B00F053
:103BA000CBBE154A4245A8BFA8F500154FF000044A
:103BB000B8BF124D22462B4600F0CAFE0646884684
:103BC00022462B460020094900F0C2FE04460D465D
:103BD0003A4653463046414600F0BAFE04B022460B
:103BE0002B46BDE8F04D00F0A7BE00000000F03FFE
:103BF000A41900003333D33F0000E93F0000D23F57
:103C00002DE9F0414F1E00EBC7010446D1E9000148
:103C100015461E4637F006020DD02A46334600F000
:103C20008DFD7F1E04EBC703D3E9002300F024FBC6
:103C300037F00602F1D1022F25D0042F13D0062F22
:103C400018BFBDE8F0812A46334600F077FDD4E97D
:103C50000A2300F011FB2A46334600F06FFDD4E939
:103C6000082300F009FB2A46334600F067FDD4E93B
:103C7000062300F001FB2A46334600F05FFDD4E93D
:103C8000042300F0F9FA2A46334600F057FDD4E940
:103C9000022300F0F1FA2A46334600F04FFDD4E942
:103CA0000023BDE8F04100F0E7BA00002DE9FF4D28
:103CB000054621F0004084B00C46B0F1795F0BDA84
:103CC0002846FFF736FD042808BF00F06FF82846A5
:103CD00008B02146BDE8F08D2A460B46104600F09C
:103CE0002DFD06460F462A46234600F027FD804656
:103CF00026488A4632463B4605217844FFF780FF36
:103D000083461098029160B3214A224B40465146A7
:103D100000F014FDCDE900015A4640465146029B91
:103D200000F00CFD82468846DDE906014FF0FF32C7
:103D300001F0D9F95246434600F00AFE32463B46AE
:103D400000F0FCFCDDE9062300F002FEDDE90023C3
:103D500000F0FEFD08B02A462346BDE8F04D00F015
:103D6000EBBD0B465A463046394600F0E7FC084AA0
:103D7000084B00F081FA4246534600F0DFFC08B0E1
:103D80002A462346BDE8F04D00F076BAE21800005E
:103D9000495555555555C5BF012201F0A4B900221A
:103DA00013461046114600F017BB0000024A0020DF
:103DB000110701F098B9000001FDFFFF30B50C4676
:103DC000050008D0022C06D9FF22611E00F02EF952
:103DD000291901F8010C30BD2DE9F047044635489A
:103DE00034490078CD6830B101280DD0022812D0B6
:103DF00003282BD11CE02946A06901F001F8E063FB
:103E0000A06A80F000400EE02946A06900F0F8FFAB
:103E1000A063A06A16E0A069294680F0004000F087
:103E2000EFFFE063A06A294600F0EAFFA0630DE01F
:103E3000A069294680F0004000F0E2FFA063A06A7C
:103E400080F00040294600F0DBFFE063606B00F08B
:103E500069FE00F069F900F0DDF98046606B00F062
:103E600061FE00F029F800F0D5F9E76B0546414600
:103E7000384600F0C5FFA66B81462946304600F063
:103E8000BFFF494601F088F8E16A00F077FEE06282
:103E90002946384600F0B4FF05464146304600F05A
:103EA000AFFF294600F06AFE216B00F067FE206339
:103EB000BDE8F0872000002000B5244B21F000422F
:103EC00087B09A42DCBF0022134629DD204B9A427C
:103ED00008D140B94FF00100FCF7EAF9FFF75FFFA6
:103EE00007B000BD03DBFFF757FF07B000BD02AA14
:103EF000FFF744FC10F0030104BF0DF1080C9CE82F
:103F00000F000DD0012001290ED0022914D00DF18F
:103F1000080C00909CE80F00FFF7C8FE07B000BD3A
:103F2000FFF7F0FD07B000BD0DF1080C00909CE814
:103F30000F00FFF7BBFE05E00DF1080C9CE80F0039
:103F4000FFF7E0FD07B081F0004100BDFB21E93F34
:103F50000000F07F10B50020FDF7FAFA0848094983
:103F60000068B0FBF1F0C1B2074801EB41020170FB
:103F7000C2EBC1114FF6FF7202EAC101418010BDD0
:103F80001400002000127A00320000200B494988FA
:103F900048434FF0E021486100228A61086940F0FF
:103FA000010008610869C30701D0C003FAD5086998
:103FB00020F0010008618A61704700003200002093
:103FC0002DE9F047DFF85CA0DFF85C8005460024AF
:103FD0006FF0090905EB84077868C06800F0F8FE07
:103FE000494601F0AEF8012101F0ABF8514600F06E
:103FF00007FF05EB04164146306100F001FFF06059
:10400000786841460068706100F0FAFE641CB06197
:10401000022CDFDB2868406800F0D6F86863BDE852
:10402000F0870000DB0F49406891ED3C10B5054C6E
:1040300004E000BF10F8013B5340E25C491EF9D296
:10404000104610BDE851000800487047700200207B
:10405000014901EB0010704738020020004870470A
:10406000180000200148407A70470000B402002088
:10407000FCF772FFFFF725F8FEF7D6FDFEF7BEFD51
:10408000FEF734FEFEF752FEFEF786FEFEF7EAFE6E
:10409000FEF704FFFEF7B4FEFFF75CFFFCF7C2F982
:1040A000FEF782FDFEF75CFF0120FCF777F9DFF8F1
:1040B00068801A4C4FF47A7500264FF4005700BF01
:1040C000FFF7D0FF222818D0303820706068401CDD
:1040D0006060A84204D339464046FCF790FC666015
:1040E000FCF7B0F9FEF778FF2078FCF773F9FEF7DC
:1040F00047FD0120FFF74AFFE2E7FEF74FFFBFF35E
:104100004F8F07480168074A01F4E06111430160DD
:10411000BFF34F8F00BFFDE70010014000000020FB
:104120000CED00E00400FA0500B5254B21F000423B
:1041300087B09A4203DC0022134600922BE0214B09
:104140009A4208D140B94FF00100FCF7B1F8FFF7EF
:1041500026FE07B000BD03DBFFF71EFE07B000BD63
:1041600002AAFFF70BFB10F003014FF001000DD086
:10417000012914D002291AD00DF1080C9CE80F0077
:10418000FFF7C0FC07B081F0004100BD0DF1080C45
:1041900000909CE80F00FFF789FD07B000BD0DF10E
:1041A000080C9CE80F00FFF7ADFC07B000BD0DF157
:1041B000080C00909CE80F00FFF778FDE2E7000094
:1041C000FB21E93F0000F07F70B50E4C05466168A9
:1041D00000F0E2FE22460C4B0C499268984203D94B
:1041E000104600F0CBFC05E0094B984203DD104679
:1041F00000F0D2FEA06065602846A168BDE870406E
:1042000000F0BCBC20000020DB0F49C0DB0FC94020
:10421000DB0F494021F00042A2F16052B2F5801F4D
:1042200001F0004328BFD2F17F6C0BD95FEA001C7C
:1042300043EAC20242EB507018BF704728BF20F01B
:1042400001007047B2F5801FBCBF184670474FEAA7
:10425000410C1CF5001F02D2084600F098BE70B554
:1042600000F016FB00000089FFF7F6BF4FF000409A
:10427000A0F580007047000010B591EA030F48BF19
:1042800083F0004300F16C83841A71EB030C05D2B8
:10429000121943EB0C03001B61EB0C01DFF824E166
:1042A0004FEA1154A4EB135C1EEA430F18BF9EEAB9
:1042B000445F73D023EA0E03DCF1200E21EA04519F
:1042C00043F4801332D322FA0CFE10EB0E0023FAD3
:1042D0000CFE41EB0E01CCF1200E03FA0EFE10EBAA
:1042E0000E0051F10001B1F5801FCCF1200E32D249
:1042F00001EB045112FA0EF2BDE8104058BF7047AE
:10430000401C38BF5FEA420218BF7047002814BF44
:1043100020F0010041F100014FEA410313F5001FB5
:1043200038BF7047A1F1C04100F000BB012A43EB48
:104330000302ACF1200CDCF11F0E32BF4FF0000E77
:1043400023FA0CF310EB030041EB0451B4EB115FC3
:10435000D0D0A1EB045101F5801149085FEA30008B
:1043600001EB04510ED350F1000038BF12FA0EFEDB
:1043700008D1BDE81040C9E7401C38BF5FEA4202DF
:10438000CAD1C3E7BDE810404FEA410313F5001F4F
:1043900038BF7047A1F1C04100F0C8BA9EEA445F3F
:1043A00008D011EA5E0FBDE8104004BF01F00041E3
:1043B00000207047BDE8104070B500F069FA00BFFA
:1043C00064FBBE3E0000E0FF02494FF0000000F039
:1043D00058BE00BF0000F87F2DE9C04130B4DFF8BF
:1043E000A0C23CEA111418BF3CEA131400F0EC80A0
:1043F00081EA03051CEA111444EAD57418BF1CEACB
:10440000131500F0C780A4EB05044FF0004545EA02
:10441000C12145EAC32341EA505143EA525304F112
:104420007F74994204F500344FEAC0204FEAC2225B
:1044300008BF904200F09C804FEA13650FF24016CF
:10444000765D4FEA134506FB05F7C7F1807706FB5B
:1044500007F74FEAD737A7FB03687642C8F58038DD
:10446000A7FB06CE38BFA8F1010807FB08E64FF00E
:10447000000EA6FB028CE6FB03CEDCF1000CCEF1B5
:10448000004E38BFAEF1010EA6FB0C584FF00007EE
:104490004FF00005E6FB0E87A1FB08C6A0FB07CE88
:1044A00016EB0E0645F10005E1FB076515F1E04E40
:1044B0007EBFA4F580345FEA46066D4116F18007A1
:1044C00045F100054FEA17274FEA066647EA0567F8
:1044D000A6F1DE46B6F1805F4FEA15251FD93846B2
:1044E00024F0010C05EBC471BCF1FE6F01EB0C1163
:1044F00002D8F0BCBDE8008124425CBF01F5801EFB
:104500009EEAC47F02D4F0BCBDE80081244238D4C6
:10451000F0BCA1F1C041BDE8004100F007BA4FEA8C
:10452000D22242EA43524FEAD323A7FB02864FEA44
:10453000D02040EA415007FB03661EEA0E0F4FEA07
:10454000D12105FB026658BFA6EB0056B6EB00561C
:104550004FEA520E4EEAC37E18EB0E0E56EB530E88
:10456000BDD518EB02085E417F1C55F10005B6E78A
:104570004FF480154FF000074FF000064FF0000891
:10458000ADE7F0BC4FF0000001F1C04101F0004187
:10459000BDE8008111EA0C1F0CEA131500D00CE0F5
:1045A00013EA0C1F00F025804FF00000F0BC81EAF8
:1045B000030101F00041BDE80081F0BCBDE800410D
:1045C00081EA030100F0B2B9F0BCBDE8004170B56A
:1045D00000F05EF9097EFC3E00F007B881EA0301B5
:1045E0004FF0000001F00041704781EA030100F044
:1045F0009DB9F0BCBDE800414FF000002149704773
:10460000FFFDFBF9F7F5F4F2F0EEEDEBE9E8E6E497
:10461000E3E1E0DEDDDBDAD8D7D5D4D3D1D0CFCD1E
:10462000CCCBCAC8C7C6C5C4C2C1C0BFBEBDBCBB57
:10463000BAB9B8B7B6B5B4B3B2B1B0AFAEADACAB52
:10464000AAA9A8A8A7A6A5A4A3A3A2A1A09F9F9E2C
:104650009D9C9C9B9A9999989797969595949393DE
:10466000929191908F8F8E8E8D8C8C8B8B8A898975
:1046700088888787868585848483838282818180F8
:104680000000FF070000F87F4FEA41034FEA535351
:10469000A3F58063D3F11E03C8BFD3F1210C0CDD59
:1046A0004FF0004242EAC12242EA505232FA03FC81
:1046B0008CEAE17CACEBE1707047102BC4BF0020AA
:1046C000704703F5787CBCF1FF3F04D06FF00042E7
:1046D00082EA2100704770B500F0DAF84992248030
:1046E00000207047F2E710F0004248BF4042B0FAA5
:1046F00080F310FA03F10AD0C3F11D0303F58063C0
:104700004FEA415002EB035202EBD12170474FF0C8
:1047100000007047B0FA80F310FA03F10AD0C3F139
:104720001D0303F580634FEA41504FEA035202EB49
:10473000D12170474FF0000070470000DFF848C1FA
:1047400070B51CEA111E1EBF1CEA13159EEA0C0F61
:1047500095EA0C0F00F06F8081EA030423EA4C1302
:104760004EEAD47E21EA4C1141F4801143F48013C7
:10477000AE44A1FB024CA0FB0365AEF17F7E36196F
:1047800055EB0C05A1FB034C4CF10003A0FB021CF4
:1047900016EB0C06654153F10003094218BF46F0C1
:1047A000010613F4007F0BD14FEA03314FEA0530C5
:1047B000340341EA155140EA16506FF003020AE053
:1047C0004FEAC3214FEAC520F40241EA555140EABD
:1047D00056506FF0020202EB2E4201EB025585EAC1
:1047E000CE710AD05FEA440C18BF24F0004450F1A7
:1047F000000041F1000120EAD47040F2FE7C6245E5
:1048000000D270BDA84214BF4FF080444FF0404426
:10481000002E08BF0024BEF1806FA8BFA1F1C041E7
:10482000BDE8704080F282804FF0000001F1C0418D
:1048300001F0004170479EEA0C0F0CEA131518BFF7
:1048400095EA0C0F06D04FF0000081EA030E0EF03F
:10485000004170BD00F01CF88900013E00F007B86F
:1048600000F009B84FEA430C5FEA5C5C08D081EACB
:10487000030100F05BB84FEA410C5FEA5C5CF6D1E3
:104880004FF00000014970470000FF070000F87F6B
:104890000EF1020E2EF0030E5EF8046B364205D4C4
:1048A000012A43EB030515F5001F12D8012841EB3F
:1048B000010C1CF5001F0CD80ED14FEAD17C15F568
:1048C000001F0CEB4C0C0CF1020C08BF4CEBD37C22
:1048D00004E04FF0080C01E04FEAD37C0CEB4C05F0
:1048E00026FA05F606F00706B6F1040C06D20EEB22
:1048F000860CBDE870404CF0010C6047DFE80CF01E
:10490000090B02024FF000414FF00000A1F5002119
:1049100070BD19461046012851EB010418BFD4F5AB
:10492000001484BF002001F0004170BD0808A0F50C
:1049300000114FEA3101704791EA030F10B581F081
:1049400000413FF5A1AC83F0004300F009B800003E
:1049500010B591EA030F48BF83F000433FF594ACD4
:10496000841A71EB030C07D212198CF0004C43EB44
:104970000C03001B61EB0C01DFF8A4E14FEA1154BA
:10498000A4EB135C1EEA430F18BF9EEA445F00F0DD
:10499000B08023EA6E03524221EA0451C3EB6E0356
:1049A00038BF5B1EDCF1200E25D322FA0CFE10EB83
:1049B0000E0043FA0CFE41EB0E01CCF1200E03FA7F
:1049C0000EFE10EB0E0051F10001CCF1200E29D4A7
:1049D00012FA0EF201EB0451BDE8104058BF7047C7
:1049E000401C1CBFB2F1004F704700280CBF491C8F
:1049F00020F00100704712EB020E43EB030218BFD8
:104A00004FF0010E4EEA4202ACF1200CDCF11E0E1A
:104A100054D943FA0CFE10EB0E0051F1FF31CCF1EA
:104A20001E0ED5D50EF1010E12FA0EFE404141EBDD
:104A3000010101EB445C5FEA5C5C10D910EBDE70B5
:104A400001EB045138BFBEF1004FBDE8104018BF64
:104A5000704700280CBF491C20F00100704730D27D
:104A60004FEAD42C11F5001124F400641BD0B1FAE4
:104A700081F20B3AA41AA41ED2F12003914030FA1D
:104A800003F31943904001EBCC71002C01EB04516E
:104A9000BDE81040A8BF704701F1C0414FF00000D1
:104AA00001F000417047B0FA80F310FA03F100D131
:104AB00010BDE41A173C4805C90AE4E701EB0451AC
:104AC00010BD491001EB0451BDE810404FEA300021
:104AD00002E04FF0000170474A0008BF0042F8D0E2
:104AE000B2F5001F28BF704701F000414FF00000F1
:104AF00070479EEA445F07D011EA5E0FBDE81040A0
:104B000004BF002100207047BDE8104070B5FFF7DA
:104B1000BFFE00BF40DFF63E83F000411046704705
:104B20000000E0FF43004FEAD30C4FEA3C0C434047
:104B30001FBF40070CF1605113F0FE4F70471CF08F
:104B4000006F03D100200CF0004170470CF00043CF
:104B500043EA507010B540EACC0000F0D2F900BF33
:104B6000000000924FEA0001FFF7E0BE4FF0004165
:104B70004FF00000A1F500217047000090EA010FFE
:104B800048BF81F0004100F10E82421A3CBF801AFA
:104B900089184FEAD0524FF07F4C1CEA410FA2EB2C
:104BA000D15318BF9CEA026F00F03B804FF0004CDD
:104BB0004CEA00204CEA012121FA03FC10EB0C0C1A
:104BC0001ED202F1FF325FEA1C2040EBC25038BF18
:104BD00070471CF07F0F4FEA400C18BFBCF17F4FAD
:104BE00038BF7047C3F12003994008BF20F001008F
:104BF000BCF17F4F38BF7047A0F1C04000F0C7B98B
:104C00004FEA3C00000A40EBC25028BF1CF0FF0FE7
:104C10004FEA400CE6D018BFBCF17F4F38BF704759
:104C2000EAE79CEA026F05D010EA5C0F08BF00F0CB
:104C30000040704710B500F064F900BF64FBBE3E51
:104C4000014800F01EBA00BF0000C07F4FF47F0C87
:104C50001CEAD0121EBF1CEAD11392EA0C0F93EA91
:104C60000C0F00F0858090EA010F48BF42F480727B
:104C700040F4000C41F400002CF07F4120F07F4014
:104C800000B58142A2EB03020FF2081CACEB504EC0
:104C9000C0F100009EF800E04FEA4E0E00FB0EFC53
:104CA00038BF49004FEA2C1C02F5FA020CFB0EF348
:104CB0004FEACE1E4FEA112C4FEAC1210EEB635E84
:104CC00042EB22420EFB0CFC4FEA1C5300FB03118B
:104CD0004FEA112C4FEA01310EFB0CFC4FEADC4C81
:104CE00000FB0C11C14228BF09184CEB03335DF8DF
:104CF00004EB10EB410143EBC250B2F57C0F38BF1F
:104D0000704729D512F0F00F1CBF00F1C04000F031
:104D100000407047008182838485868788898B8CD8
:104D20008D8E8F919293959697999A9C9D9FA0A214
:104D3000A3A5A7A8AAACAEB0B2B3B5B7B9BCBEC064
:104D4000C2C5C7C9CCCED1D4D7D9DCDFE2E6E9EC05
:104D5000F0F3F7FAFE0000004FEA400C0CF1807C03
:104D6000BCF17E4F28BF7047B0F1C04000F00FB9D2
:104D700090EA010F0CEAD11348BF42F480726245F9
:104D800038BF634507D213F47F0F16D080EA0100C5
:104D900000F00040704710B500F0B3F8097EFC3E0B
:104DA00000F005B880EA010000F00040704780EA9A
:104DB000010000F0004000F0EAB812F47F0F04BFD9
:104DC0000248704780EA010000F0E1B80000C07FAF
:104DD00010F0004148BF4042B0FA80F310FA03F2ED
:104DE000C3F19D030BD051EAC35101EB12205306CE
:104DF00038BF704700F1010008BF20F00100704784
:104E00004FF47F0C1CEAD0121EBF1CEAD11392EAA9
:104E10000C0F93EA0C0F00F0478090EA010F48BF97
:104E200042F480724FF0004C4CEA00204CEA012121
:104E300002EB0302A0FB0113A2F50002002918BF38
:104E400043F001035B0028BF4FEA330342EB2242E9
:104E50005FEA132C4CEBC2502EBFBCEB436FB2F594
:104E60007C0F70474FEA036CBCF1004F08BF20F085
:104E70000100B2F57C0F38BF70470BD582F0FF02FE
:104E800012F5803FC8BF704700F1C040D8BF00F0A6
:104E90000040704700F5000C5FEA4C0C48BF7047BB
:104EA000B0F1C04000F073B890EA010F0CEAD113E2
:104EB00048BF42F48072624538BF634504D280EA3D
:104EC000010000F00040704710B500F01AF800BF74
:104ED0008900013E00F007B800F009B85FEA410C14
:104EE0005FEA1C6C08D080EA010000F050B85FEA6D
:104EF000400C5FEA1C6CF6D14FF00040A0F580003A
:104F000070470EF1020E2EF0030E5EF8044B2442A1
:104F100004D44FEA4102B2F17F4F11D84FEA400367
:104F2000B3F17F4F0CD80ED14FEAD07CB2F17F4F56
:104F30000CEB4C0C0CF1020C08BF4CEBD17C04E0E8
:104F40004FF0080C01E04FEAD17C0CEB4C0324FA43
:104F500003F404F00704B4F1040C06D20EEB840C45
:104F6000BDE810404CF0010C6047DFE80CF007088A
:104F700002024FF00040A0F5800010BD084642003C
:104F800018BFD2F1807288BF00F0004010BDFF2131
:104F900041EAD050C005704790EA010F48BF81F048
:104FA00000413FF5F2AD421A04D882F00042A0EB76
:104FB000020011444FEAD0524FF07F4C1CEA410FDF
:104FC000A2EBD15318BF9CEA026F4AD04FF0004CBD
:104FD0004CEA00204CEA012121FA03FCB0EB0C0C56
:104FE0000FD412F0FE0F36D05FEA4C001DD5001230
:104FF00040EBC25038BF70471CF03F0F18BF7047DE
:105000000BE0A2F101025FEA1C2040EBC25038BF66
:1050100070471CF07F0F18BF7047C3F12003994001
:1050200014BF401E20F00100704780084FEA122391
:1050300008BF7047B0FA80FCA2EB0C02CCF1280C40
:1050400060FA0CF093EA122F04BF00EBC2507047D5
:105050004FEAC3707047130A5FEADC1008BF70475D
:10506000F6E79CEA026F04D010EA5C0F08BF00204C
:10507000704710B5FFF745FF40DFF63E81F0004076
:1050800070470CF00F03092B08BF082000F07F8049
:105090000A2B0BD0082B18BF704708BF1CF0400F1D
:1050A0000AD04FF000004FF0000170471CF0400F95
:1050B00018BF4FF0004070471CF0100F08D020F0D0
:1050C000704300F07F4242EAD3014FEA43707047D9
:1050D00000F0604021F07F4242EA000201F07F4090
:1050E00040EA727070474FF0FF0C4CF4E06C1CEA21
:1050F00011531CBF9CEA030C9445C2BFDA4201EB7A
:1051000002517047002B0DD0BCF1000F0FD0002AC8
:1051100001F00041A4BF41F0E04141F07F614FF058
:105120000000704701F000414FF00000704750EA66
:1051300001334FF09B0C18BF4CF0806C7FF444A9F6
:1051400070474FF0FF0212EAD0521CBF92F0FF03EB
:105150008B42C2BFD14200EBC1507047002A0AD037
:10516000002B0BD0002900F00040A4BF40F0FE400F
:1051700040F40000704700F00040704743024FF0D9
:105180000B0C18BF4CF0806C7FF45AAD70471CF4C8
:10519000801F11D01CF4E02F03D06FEACC314900FE
:1051A00070474FF04050EFF3008222F0704242EA25
:1051B000000282F3008870474FF000007047010240
:1051C00002030405060708090A0B0C0D0E0F101048
:1051D00000000000000000000102030406070809A7
:1051E0000000000001020304005EBCE2613FDD83B9
:1051F000C29C7E20A3FD1F419DC3217FFCA2401EB7
:105200005F01E3BD3E6082DC237D9FC1421CFEA0A6
:10521000E1BF5D0380DE3C62BEE0025CDF81633D96
:105220007C22C09E1D43A1FF4618FAA427799BC586
:1052300084DA3866E5BB5907DB856739BAE4065876
:105240001947A5FB7826C49A653BD987045AB8E666
:10525000A7F91B45C6987A24F8A6441A99C7257B56
:105260003A6486D85B05E7B98CD2306EEDB3510F46
:105270004E10F2AC2F7193CD114FADF3702ECC9236
:10528000D38D6F31B2EC0E50AFF1134DCE90722C26
:105290006D33D18F0C52B0EE326C8ED0530DEFB116
:1052A000F0AE4C1291CF2D73CA947628ABF5174906
:1052B0000856B4EA6937D58B5709EBB536688AD4F6
:1052C00095CB2977F4AA4816E9B7550B88D6346AE6
:1052D0002B7597C94A14F6A8742AC896154BA9F7D6
:1052E000B6E80A54D7896B350000891112239B3226
:1052F0002446AD573665BF74488CC19D5AAFD3BEA6
:105300006CCAE5DB7EE9F7F88110080193331A22B5
:10531000A5562C47B7753E64C99C408DDBBF52AE85
:10532000EDDA64CBFFF976E802218B301002991395
:105330002667AF763444BD554AADC3BC588ED19F65
:105340006EEBE7FA7CC8F5D983310A209112180375
:10535000A7772E66B5543C45CBBD42ACD99E508F45
:10536000EFFB66EAFDD874C904428D5316619F7045
:105370002004A9153227BB364CCEC5DF5EEDD7FC25
:105380006888E1997AABF3BA85520C4397711E6035
:10539000A1142805B3373A26CDDE44CFDFFD56EC05
:1053A000E9986089FBBB72AA06638F7214409D5115
:1053B0002225AB343006B9174EEFC7FE5CCCD5DDE5
:1053C0006AA9E3B8788AF19B87730E6295501C41F5
:1053D000A3352A24B1163807CFFF46EEDDDC54CDC5
:1053E000EBB962A8F99A708B088481951AA793B6D5
:1053F0002CC2A5D33EE1B7F04008C919522BDB3AC5
:10540000644EED5F766DFF7C899400859BB712A694
:10541000ADD224C3BFF136E0C1184809D33B5A2AA4
:10542000E55E6C4FF77D7E6C0AA583B41886919774
:105430002EE3A7F23CC0B5D14229CB38500AD91B84
:10544000666FEF7E744CFD5D8BB502A49996108754
:10545000AFF326E2BDD034C1C3394A28D11A580B64
:10546000E77F6E6EF55C7C4D0CC685D71EE597F424
:105470002880A1913AA3B3B2444ACD5B5669DF7844
:10548000600CE91D722FFB3E8DD604C79FF516E414
:10549000A9902081BBB332A2C55A4C4BD7795E6824
:1054A000E11C680DF33F7A2E0EE787F61CC495D5F4
:1054B0002AA1A3B03882B193466BCF7A5448DD5904
:1054C000622DEB3C700EF91F8FF706E69DD414C5D4
:1054D000ABB122A0B9923083C77B4E6AD5585C49E4
:1054E000E33D6A2CF11E780F4C5555555555A53F97
:1054F0007751C1166CC156BF9015CB19A001FA3E69
:10550000AD529C804F7E92BEC4B1B4BD9EEE213E92
:10551000D43888BEE9FAA8BD00004054FB21F93F09
:105520003163621A61B4D03D0000601A61B4D03DAD
:105530007370032E8A19A33B0000002E8A19A33B27
:10554000C14920259A837B3900000000000000003B
:105550006E83F9A22915444ED15727FCC0DD34F5DE
:10556000999562DB4190433CAB6351FE61C5BBDE64
:105570003A6E24B7E0D24D42EA2E49061C92D10978
:105580001CEB1DFE3EA729B1F53582E88444BB2EF5
:1055900026709CE9417E5FB439D69139F439538342
:1055A0008B5F849C3B28F9BDFF97F81F0F9805DEA1
:1055B0008B112FEF1F6D0A5ACF7E366DB709CB279F
:1055C000663F464F2DEA5F9EC7BA27757BF1E5EB34
:1055D000F739073DEA92528AB15FFB6B085D8D1F78
:1055E000A6F810111111813FD561C119A0012ABF80
:1055F0007DFEB157E31DC73EEB9C2B8AE6E55ABE04
:105600007CD5CF5A3AD9E53D285600080000002045
:10561000380000002801000860560008380000200B
:105620002009000044010008000000000000000004
:1056300001000000100000000000000000127A00CD
:10564000000000000000000000000000000000005A
:10565000000000000000000000000000000000004A
:04000005080000ED02
:00000001FF
